:020000040000FA
:100000000C947A060C94A2060C94A2060C94A206F8
:100010000C94A2060C94A2060C94A2060C94A206C0
:100020000C94A2060C94A2060C94A2060C94A206B0
:100030000C94A2060C94A2060C94A2060C94A206A0
:100040000C9459260C94A2060C9427260C94012695
:100050000C94A2060C94C2270C94A2060C94A2063F
:100060000C94A3260C94A206000000002400270094
:100070002A0000000000250028002B0000000000DE
:1000800023002600290004040404040404040202DA
:100090000202020203030303030301020408102007
:1000A0004080010204081020010204081020000012
:1000B0000008000201000003040700000000000027
:1000C00000005D0003020303010405070800FF07A9
:1000D000FF0700012E025B0371200540A4002107E9
:1000E000799418A20022075BA6482C01230E7DB448
:1000F0002925C9A05406A5942400240B7DB4CA0662
:100100007110072D02250A7FC44EB2B45B1203267C
:100110000C7EBCD1A2362D4AB46809270559961821
:1001200028087BA44A4AB50229097BA4C84A95122B
:10013000002A0CEFC4C92AD130444956012B0AEDDC
:10014000B40AA3410A23002C07DA9B4914002D05A9
:10015000CEBD382E055194102F077FC44EFB0C30B6
:10016000097DB459326FC90231097DB4CAC44E83C6
:1001700000320A7DB459B2306B1B04330C7DB418C5
:10018000D23019C2705000340C7DB4CBA4A4940CAE
:100190005A9800350A7DB4B8AEA1962C00360C7D75
:1001A000B459327148322D590037097DB418C4ACA6
:1001B000D804380C7DB459322D59322D5900390CE0
:1001C0007DB459322D19422D59003A06E194880226
:1001D0003B07F29B4913053C077CAC8B1A1B3D0780
:1001E0005DB518D4413E087CAC089BDA003F0B7D1E
:1001F000B459B230AB431100400F7FC4199454522C
:10020000948A32ECC0A000410B7DB459326D183293
:100210005B00420D7DB418924C1B944C1B140043A0
:10022000097DB419C4AE4300440A7DB41892CCDBF6
:10023000A000450B7DB438864312868300460A7DB4
:10024000B4388643121601470C7DB4593231193245
:100250002D5900480A7DB4C86CC390D9024906796B
:100260009438044A097DB4ECA8250B004B0C7DB4EE
:10027000C8A4A4A42551250B4C087DB4087B1C04FC
:100280004D0B7FC448B7A52245AA354E0C7EBC084D
:10029000372592126D14034F097DB459326FC9028C
:1002A000500B7DB418924C1B94B008510B7DB4597F
:1002B0003297448A9400520C7DB418924C1B94528D
:1002C000250B530A7DB4593275D5920554097DB476
:1002D00018A4B0270055097DB4C87C4B16005609F8
:1002E0007DB4C8BC25B508570B7FC4489D22A5B274
:1002F000AD01580B7DB4C8B4A456A96901590A7D53
:10030000B4C86C492D2C015A097DB418C4ACE32043
:100310005B087BA418A24E035C0E7FC4C8811CC876
:10032000811CC8811C085D087BA4983A0D015F06FA
:100330004FC43804610A6DB45993414B8600620B77
:1003400075B408C321C9B4410163086CAC19B2E2A9
:1003500000640A75B4AC0C9A960C01650A6DB45928
:10036000B241498700660A74AC52A221C94A0067AB
:100370000BF5B359322D19C26401680A75B408C36C
:1003800021C96C01690771944886006A08FBA34A79
:10039000A3D2026B0974ACC84A43D2146C06729C97
:1003A000507A6D0B6FC4B84491144991546E086D26
:1003B000B41892CC2D6F096DB459325BB200700B3A
:1003C000F5B318924C1B943004710AF5B319342D0F
:1003D00019C20272096DB418924C2C0273086DB4E4
:1003E00019D48302740A75B48A0629AC26007508EC
:1003F0006DB4C8DC922176096DB4C86C492D0277C2
:100400000C6FC48822299222A9320C78096DB4C8D5
:10041000925AA516790BF5B3C86CC910260B007A51
:10042000086DB418B4B6417B0A7CAC52B228CC42F9
:10043000017C06799438047D0A7CAC10B330CA1272
:10044000097E07D6BD912C0000000004FFFF0000CC
:10045000100003020505010406141600FC12FA122E
:10046000FA00000000024D20050044142A1EAD6D64
:10047000B7F35299929E14C7A46DD0861D1CB64145
:100480004B1A15A7A4A7A532AF002C10272534833B
:10049000925A132DAA4559126A002E0BA744348391
:1004A000925A9341012F2854C6FA844127A4391A3D
:1004B000E7609CA375B48ED6D13A5A47EB681DAD60
:1004C000A375B48EC63918E7689D30E804303054FF
:1004D000C69AC3B38E6A39A94E4A7260C801398C74
:1004E000D53855E3548D53354ED53855E3540E6306
:1004F0001D187220C9497552A6A3F2F00831204890
:10050000C674431626A99CA4499AA4499AA4499A58
:10051000A4499AA4499AA4499AA4D1A0003230547B
:10052000C65AC3C79C12E5B424A725F12027691831
:10053000478318E7609C83710EC63918E7609C8377
:10054000718EC9C329A7E9449D980CBF0033365466
:10055000C67AC3839A13B29C94E4B4241ED6248D25
:10056000C368D08630C772200773200773240787BB
:10057000341A742055E3541E669D98E4A42C27A4D5
:10058000C3830634325346FAD830E4600EE4508E0A
:10059000E4480EE5408EC569AB1AA6499AA5511AE2
:1005A000A5599AC483BAD3749A4E4B8683AA836999
:1005B0008ED6E14102353053463AC30725A7E934C8
:1005C0009D260F0725CDD178B8E51425A725C36B47
:1005D0000E87391C0E430E84EA30A43A2DC94975A2
:1005E00042383C4800363054C67AC3C79C12E5A452
:1005F00024A725F1F092E6703C1CB29C54A725F18B
:1006000030AB71AAC6A91AA7F230EBC4242765390A
:10061000211D1E3400372C54C63AC32F395127EA06
:10062000C46478CEC13807E31C8C7330CED13A5AFB
:1006300087D31CADC3698ED6E13487D39C30E810D4
:1006400000383154C67AC3839A13B29C5427558715
:10065000350AE3302B6769366C718ED609593AAC8E
:10066000491AA76A9CCAC3AC13939C94E584747816
:10067000D000392E54C67AC3839A13B29C94E444B2
:100680007998D53855E3548D537998756292D3A2F1
:10069000E13587D3E1AB4E4B725A9413C4E1410468
:1006A0003A12C7453483925A9341E73428A9351941
:1006B000140000000004FFFF0000410003020404D6
:1006C0000204050C0C00FF09FD0AFE0000000000FA
:1006D000DF200500A2052B0B77E65D5C1B862CAEA8
:1006E000012D0616F2C5012E062263C510300B96A9
:1006F000E2CD90847E4C8604310995A2C5D84F8303
:1007000000320B96E2CD9084625F8701330E96E251
:10071000CD908469694EC5644800340F96E29D9679
:10072000445DB2244B86314D00350E96E2C5214D15
:1007300007394DC5644800360F96E2CD90846AB201
:1007400068A231191200370B96E2C5310DD3625AF7
:1007500003380F96E2CD9084C66448426332240089
:10076000390F96E2CD9084C664505331191200447B
:100770000D9722C6208549EA633248004908932232
:10078000C512F565500C96E2C5A0848EC392560141
:10079000530F96E2CD90846A3CC4A9980C09005688
:1007A0000F9722466A4DB228AB84491A67000000B1
:1007B0000004FFFF210317B95F4F0E24D1540B73C0
:1007C0002047722447722847B274014EAE1CCC5E9B
:1007D000773ABCA5E930E494E1A0E450120D5298B8
:1007E000E540168751220F4F111DCC5E5F1DC8E2F8
:1007F000304E8621122BD99AAD51528C926212D56D
:10080000B45218024F4E1BCC5E5F2A26431A55A3E2
:10081000A2544BA261885AA36AD44B5334491D5049
:100820005C1DCC5E5F1D08D36418A41C9386A514C0
:1008300066C93048491C45C39676DB00507F1FCC03
:100840005E5F12D5A2A4965686415162251AB61C47
:100850004C86410AE3AC6518A46A00517319CB5E5B
:10086000575ACB81241DCE39960E073587921CC866
:10087000D2920E0851B71CCC5E779AAA59144661E1
:100880002865529826C310E940560A43B58E660083
:1008900051C622CC5E4798A4591426C930644994A5
:1008A00026521A0D8B1685D9306551984561360C44
:1008B000690C52A024CC5E5F0EE6C8302443162596
:1008C000511625511625511625512D896A49544B2B
:1008D000A2244C064D2A538B1BCC5ED7708872B075
:1008E0001CC6619C0C4316C6611296AA51358C86B3
:1008F0000354111ACA5F678EC4C3414774441A2255
:10090000A92495A421D21139D18104542619BB5EA2
:10091000C783A823AD5149CBD4301A86300DD3708C
:1009200018C2340257FA19CB5E5F6D3868E541CEC4
:10093000E241CEB2E120352983A2A6C3415C4F1D1E
:10094000CC5ED770CB816CB82561A93A1CA2D6A821
:100950003A1C922C0AA3AC1466005E551CCB5E5F59
:100960006D3868D56108D37018C2248B8683D4345F
:100970001CA4C62891005EA61ECC5E3F100F87A85F
:10098000160E87A81646839883C9306451564CC208
:10099000708BB6015F001CCC5ECF7048B31CC87270
:1009A00020CB812C1B1EB31CC8E2300ED3629C01ED
:1009B000624B18CB5EF7100D3A9663F170CEB174AE
:1009C00038A839962375280662A521CC5E57346C69
:1009D00051984561324C629423D1B029A5644AA252
:1009E0002C4A8A512D89925A6663A51FCC5E575AAC
:1009F0001A8628AB0C521246C310A5A9321CC22875
:100A00002B85A1968449961965B917CC5E6F8EA681
:100A1000C3630EE6E0308769C7380B932C0E01657F
:100A2000CB22CC5E57980359383C6539B00C5392B1
:100A30004595D6A4322451528C9262A46851120D6D
:100A40000165F61CCC5E3F140D69548DA2E110A522
:100A5000D1906451FF351AD2A896E45806662F1B30
:100A6000CC5EDF3087F13087F1B05386E71C898692
:100A700034CA81A4AA0D4300672A18CB5E6F8EC5C5
:100A8000C339C7D2E1A0E6D00E24D5A8A4656A0A6E
:100A9000673A21CC5E570E66439845D1A044611653
:100AA00065534D29559A2A5914465912D592280949
:100AB0000767C41ECC5E570E46C310A5D9F0D449B3
:100AC000892A968A12251525D2A46A548D8A02682D
:100AD000211BCC5E5718A7A5E1250AB39A92264A96
:100AE000A9D25409D5C6248C34016E2921CC5E4F7D
:100AF00036885196038354C92AC92046599883C918
:100B0000302452D25469AA3425C3016E9025CC5E9C
:100B10004F340C5292E5401466C92055B24A3268EF
:100B200049AD920C8A948549949492524589A400C7
:100B300070D922CC5E579603D9A025B524519A923C
:100B4000344BC2244C36291BB4A624CAA2CAA0A482
:100B5000590270ED21CC5E579603593A248398458B
:100B6000A122455B1446498B12453A9C44B5A82501
:100B70008B2A00753519CB5F678EC5C3292B65A5F8
:100B8000E19495B2D27009D3304D8701772026CCFD
:100B90005EEFB00C499844499844C9B00C4994455B
:100BA000499445C97050A22C4AA22C4AB2645034D0
:100BB000B5007AEF20CC5E4F9C46A54189AAC320A0
:100BC000E550920C43528BA361882A4D4352D9922F
:100BD000D6507F6E1BCC5ECF70883A0D87381E1EB4
:100BE000736818C4381CA4301BC2381A1E886517D5
:100BF000CC5E4F9CD6062D0ED3544CB2241A23A59E
:100C00001655FB0D8B661DCC5ECFB0A4513424C3AA
:100C1000D2A730E9341C74CA30E4B46148ABC310C5
:100C2000018F6C1DCC5E57DA36288316A6499626AE
:100C3000C9F09223D1208EC9902569A896008FC74C
:100C40001FCC5E4F0E8471980C830EE540166D51DB
:100C50009845611C56C2344C72241B060190062034
:100C6000CC5E4F56CC923419061DC891A8B244B53B
:100C70006418B224AA85711627E56C180491CD1A60
:100C8000CB5E3FA00D3B940E07A97118C2A8380C8B
:100C900039100FE774380894C11CCC5E4F1C56C243
:100CA00021A9A583324C69D3F096864998444928F6
:100CB00065A53495F421CB5E4F340C510EE8903489
:100CC0004852164959240D92944552164983A4035B
:100CD000898E2400987A1BCC5E4F960C4A5BA51433
:100CE000269541E996F4FFFFFF14464931C90200F9
:100CF0000000F82711241FBECFEFD8E0DEBFCDBF24
:100D000013E0A0E0B1E0ECE2F3E702C005900D9241
:100D1000A836B107D9F727E0A8E6B3E001C01D92D5
:100D2000A435B207E1F716E0CAE7D6E004C0219780
:100D3000FE010E943738C937D107C9F70E94ED2854
:100D40000C9494390C940000662329F06A3019F051
:100D5000862F90E008958FEF9FEF0895CF92DF9256
:100D6000EF92FF920F931F93CF93DF93EC01842FA9
:100D70008770E1E0F0E0082E01C0EE0F0A94EAF778
:100D80003E2F7E0193E7E90EF11CD7019C9110E004
:100D9000923018F41E2F913029F150E0487FE8ADD1
:100DA000F9ADC880D980D60150969C91949F60017E
:100DB000959FD00C11246C0D7D2D711DDF01A60FA8
:100DC000B71F011115C08C91812B83278D93215062
:100DD000D1F7DF91CF911F910F91FF90EF90DF90AE
:100DE000CF90089530E0D9CF110F330F222389F32C
:100DF0009C91912B93279C938F5F87702150811139
:100E0000F3CF9CADA90FB11DF7019081923028F46A
:100E1000913009F031E011E0E9CF31E0E7CF80E037
:100E2000089580E00895CF93DF93C3EDD6E09BAFA4
:100E30008AAFDC01ED91FC9187ED96E00995EAAD72
:100E4000FBAD0280F381E02D87ED96E0DF91CF913D
:100E5000099480934A0708959B01DC011896ED914F
:100E6000FC9141E067E10994FC01538D448D252FED
:100E700030E0842F90E0821B930B541710F0CF9634
:100E8000089501970895FC01918D828D981761F066
:100E9000A28DAE0FBF2FB11D5D968C91928D9F5F7D
:100EA0009F73928F90E008958FEF9FEF0895FC015C
:100EB000918D828D981731F0828DE80FF11D858D0F
:100EC00090E008958FEF9FEF0895FC01918D228DA2
:100ED000892F90E0805C9F4F821B91098F73992727
:100EE0000895FC01A48DA80FB92FB11DA35ABF4FBF
:100EF0002C91848D90E001968F739927848FA68919
:100F0000B7892C93A089B1898C91837080648C936C
:100F1000938D848D981306C00288F389E02D80811B
:100F20008F7D80830895EF92FF920F931F93CF934D
:100F3000DF93EC0181E0888F9B8D8C8D98131AC014
:100F4000E889F989808185FF15C09FB7F894EE89FB
:100F5000FF896083E889F989808183708064808358
:100F60009FBF81E090E0DF91CF911F910F91FF90A3
:100F7000EF900895F62E0B8D10E00F5F1F4F0F734B
:100F80001127E02E8C8D8E110CC00FB607FCFACF06
:100F9000E889F989808185FFF5CFCE010E9471072C
:100FA000F1CFEB8DEC0FFD2FF11DE35AFF4FF082D7
:100FB0009FB7F8940B8FEA89FB8980818062CFCF3D
:100FC000CF93DF93EC01888D8823B9F0AA89BB8980
:100FD000E889F9898C9185FD03C0808186FD0DC06B
:100FE0000FB607FCF7CF8C9185FFF2CF808185FF8C
:100FF000EDCFCE010E947107E9CFDF91CF91089527
:101000008FED94E00E94650721E0892B09F420E030
:10101000822F089580E090E0892B29F00E9400083B
:1010200081110C9400000895AF92BF92CF92DF928D
:10103000EF92FF920F931F93CF93DF936C017B018D
:101040008B01040F151FEB015E01AE18BF08C0171E
:10105000D10759F06991D601ED91FC910190F08191
:10106000E02DC6010995892B79F7C501DF91CF9154
:101070001F910F91FF90EF90DF90CF90BF90AF90B6
:101080000895833081F028F4813099F08230A9F0FE
:1010900008958730A9F08830C9F08430B1F4809188
:1010A00080008F7D03C0809180008F7780938000C7
:1010B000089584B58F7784BD089584B58F7DFBCF67
:1010C0008091B0008F778093B00008958091B00038
:1010D0008F7DF9CFCF93DF93282F30E0F901E255D0
:1010E000FF4F8491F901E656FF4FD491F901EA5779
:1010F000FF4FC491CC23A1F081110E944108EC2F35
:10110000F0E0EE0FFF1FE458FF4FA591B491EC9172
:10111000ED2381E090E009F480E0DF91CF91089524
:1011200080E090E0FACF1F93CF93DF93282F30E039
:10113000F901E255FF4F8491F901E656FF4FD49132
:10114000F901EA57FF4FC491CC23A9F0162F811162
:101150000E944108EC2FF0E0EE0FFF1FEE58FF4F0A
:10116000A591B4918FB7F894EC91111108C0D09566
:10117000DE23DC938FBFDF91CF911F910895DE2B8B
:10118000F8CFCF93DF9390E0FC01E656FF4F249118
:101190008A579F4FFC0184918823C9F090E0880F03
:1011A000991FFC01E859FF4FA591B491FC01EE583D
:1011B000FF4FC591D49161110DC09FB7F8948C91E8
:1011C000209582238C938881282328839FBFDF91D9
:1011D000CF910895623051F49FB7F8943C91822FDB
:1011E000809583238C93E8812E2BEFCF8FB7F894D3
:1011F000EC912E2B2C938FBFEACF3FB7F8948091C0
:10120000650490916604A0916704B091680426B5C6
:10121000A89B05C02F3F19F00196A11DB11D3FBF2E
:10122000BA2FA92F982F8827BC01CD01620F711DFD
:10123000811D911D42E0660F771F881F991F4A95F7
:10124000D1F708958F929F92AF92BF92CF92DF9283
:10125000EF92FF926B017C010E94FD084B015C0143
:10126000C114D104E104F104B9F00E94FD08681929
:1012700079098A099B09683E73408105910580F3CD
:1012800021E0C21AD108E108F10888EE880E83E057
:10129000981EA11CB11CE4CFFF90EF90DF90CF907F
:1012A000BF90AF909F908F9008952FB7F894609162
:1012B00061047091620480916304909164042FBF73
:1012C0000895CF92DF92EF92FF920F931F93CF93E7
:1012D000DF93EC0188810E946A082A812817190689
:1012E00049F510E08B81882309F479C00E945509E3
:1012F000CD80DE80EF80F8846C197D098E099F090E
:10130000CB88DC88ED88FE88C616D706E806F90685
:1013100008F065C01B8281E08C8313E0EF89F88DB3
:10132000309709F45EC029853A854D85612F888103
:10133000099557C00E9455096B017C010E9455090F
:101340006C197D098E099F090F85188929893A89A9
:10135000601771078207930738F461E070E080E05E
:1013600090E00E942209EACF88810E946A082A81BF
:101370002817190609F4B5CF11E021272A8389819E
:10138000813059F18E8590E02817190681F40E946A
:101390005509CD80DE80EF80F8846C197D098E09B7
:1013A0009F0969877A878B879C871B839ACF0E94C6
:1013B00055096D837E838F83988719861A861B86CD
:1013C0001C868C81882329F01D871C821B8212E0D9
:1013D00089CF8D858F5F8D87F9CF11E083CF111174
:1013E0009DCF812FDF91CF911F910F91FF90EF90B3
:1013F000DF90CF90089520911404260F3327331FD8
:1014000021323105ECF420913A04FC0190E080E0B7
:10141000243069F082E00895A09114042191AC0178
:101420004E505C4FA40FB52FB11D2C93019686171B
:1014300098F380911404680F6093140480E0089579
:1014400081E0089510923A0481E080933C04109268
:101450003B0461E082E10E94930861E083E10E9425
:101460009308E9EBF0E080818E7F808380818D7F1F
:10147000808388E48093B80085E48093BC0008955D
:10148000CF93DF9391E09093F1038823B9F0C0915B
:10149000B800D091BA008091BC008A7B8093BC00D8
:1014A00060E082E10E94930860E083E10E9493087B
:1014B0000E94220AD093BA00C093B800DF91CF9166
:1014C0000895089508950895E091E9038091E8034F
:1014D000E81730F4F0E0E853FC4F808190E0089585
:1014E0008FEF9FEF08959091E9038091E8032FEF2C
:1014F0003FEF981748F4E92FF0E0E853FC4F2081C4
:1015000030E09F5F9093E903C90108958091E8035B
:101510009091E903891B990B0895CF92DF92EF9286
:10152000FF920F931F93CF93DF937C01CB018A012E
:101530002091C703222389F0EB016B01C40ED51E55
:10154000CC15DD0569F06991D701ED91FC91019011
:10155000F081E02DC7010995F3CF642F0E94FB09AC
:10156000C801DF91CF911F910F91FF90EF90DF9015
:10157000CF900895CF93DF931F92CDB7DEB76983E5
:101580002091C7032223F9F02091EA03203258F07A
:1015900021E030E0FC013383228390E080E00F9073
:1015A000DF91CF9108958091EB03E82FF0E0E955AA
:1015B000FC4F998190838F5F8093EB038093EA03C4
:1015C00081E090E0ECCF61E0CE0101960E94FB0942
:1015D000F7CFDC011A96ED91FC9130E020E0099400
:1015E000DC011696ED91FC9130E020E040E069E1ED
:1015F0000994DC011696ED91FC9130E020E040E08A
:1016000068E109949A01DC011696ED91FC91462F50
:1016100067E10994EF92FF920F931F93CF93DF93AB
:101620001F92CDB7DEB77C018B01D8016C91673179
:1016300029F150F46531A0F40F90DF91CF911F9103
:101640000F91FF90EF9008956A3118F16E3FA1F766
:10165000F8014181498369E2C7010E94E90A0BC090
:10166000F80141814983D7011696ED91FC9130E054
:1016700020E0C70109950E5F1F4FD7CFF801818188
:101680008983AE014F5F5F4F61E0C7010E94020B8B
:10169000F2CF0F5F1F4FD7011696ED91FC9130E00E
:1016A00020E040E0C7010995C0CF462FDC01169627
:1016B000ED91FC9130E020E066E10994462FDC01D9
:1016C0001696ED91FC9130E020E065E10994EF92EF
:1016D000FF920F931F93CF93DF93EC01042F7901B7
:1016E000693069F487E991E0998388831C8A81E0F5
:1016F000DF91CF911F910F91FF90EF9008956D3082
:1017000009F475C038F46A3091F16B3009F468C09F
:1017100080E0EECF6E3009F47DC06F30C9F70E94D3
:10172000F90AF7011381110F110F110F6C89160FB0
:10173000612F62956F706061CE010E945E0B612F18
:101740006F70CE010E945E0BF7016481606BCE0169
:101750000E945E0BF701408151816281660F660F26
:10176000660FCE010E94020B0150A1F75DC0EA8511
:10177000FB8530E020E040E068E20995EE81FF81E2
:1017800030E020E040E064E1CE01099541E06BE407
:10179000CE010E94E90AE881F981448169E2CE0123
:1017A0000E94E90A40E06BE4CE010E94E90AE88168
:1017B000F981448169E2CE010E94E90A41E06BE4CB
:1017C000CE010E94E90AE881F981458169E2CE01F2
:1017D0000E94E90A62E671E0CE010E940A0B87CFFF
:1017E0006DE571E04423C1F368E571E0F5CF411187
:1017F00009C061E571E00E940A0BE881F9818289E4
:101800008C8B75CF6AE471E00E940A0BE881F98144
:101810008389F6CF0E94F90A61E8CE010E945E0B2F
:10182000602FCE010E94550BCE010E94F00A5FCFBF
:10183000DC011896ED91FC9130E020E040E069E198
:101840000994DC011896ED91FC9130E020E040E035
:1018500068E10994CF93DF931F92CDB7DEB7698318
:10186000BE016F5F7F4F0E942C070F90DF91CF91D9
:101870000895EF92FF921F93CF93DF93EC01162F01
:101880007A010E94210C60E4CE010E942A0CE885B6
:10189000F9859701412F67E1CE010995CE01DF91CE
:1018A000CF911F91FF90EF900C94180CEF92FF9244
:1018B0001F93CF93DF93EC01142F7901663181F1EF
:1018C00038F4643109F44BC0653179F080E022C00E
:1018D0006831C9F150F16931C9F78091A6038823B5
:1018E00091F1CE010E94180C2EC08091A60388238E
:1018F00019F0CE010E94180CCE010E94210C60E06C
:10190000CE010E942A0C612FCE010E942A0C81E098
:101910008093A603DF91CF911F91FF90EF900895E0
:10192000642F0E942A0C81E0F5CF8091A6038823C2
:1019300019F0CE010E94180CA701193138F4612F5B
:10194000CE010E94390C1092A603EDCF68E1CE01C2
:101950000E94390C185188E1E80EF11CEDCF8E89F8
:101960008F3F11F488E78E8BE885F9859701412F29
:1019700064E1CE01DF91CF911F91FF90EF90099428
:10198000FC016623D9F16A30C9F1808D811125C02F
:101990006C3F48F085E0808F617070E0738B628BE4
:1019A0002EEF3FEF29C0683F20F084E0808F637006
:1019B000F4CF603F20F083E0808F6770EECF603E11
:1019C00020F082E0808F6F70E8CF262F30E0603CFF
:1019D00098F081E0808F6F71E0CF8150808F2289F5
:1019E000338996E0220F331F9A95E1F76F73262B08
:1019F000338B228B8111D4CFC90108952FEF3FEF94
:101A0000FBCF0F93DC01FC01EE5BFF4F9081941B39
:101A1000492F31979081961B692F01110EC04150BB
:101A2000621BDE968C91DE97481BD496ED91FC915B
:101A3000D597CD0109950F910895013091F7615027
:101A4000421BEFCF0F93DC01DE963C91DE97431BE8
:101A5000D496ED91FC9109950F910895FC01ED5BF1
:101A6000FF4F10823196DC01AF5BBF4F2C9120837A
:101A70003196108211962C9112973C91231718F0F1
:101A8000422F431B4083FC01EA5BFF4FDC01DF96E2
:101A90008C91281B20830895FC01ED5BFF4F108281
:101AA0003196DC01AF5BBF4F2C9120833196DC0176
:101AB000DF962C9120833196805C9F4FDC018C91C6
:101AC00080830895CF93DF93FC01A081B18182AD23
:101AD000982F990F990F990F95AF50969C91509709
:101AE000903208F09FE1990F990F990F94AF23ADB1
:101AF000922F990F990F990F96AF51963C9151974C
:101B0000682F620F7727771F3617170614F4832F75
:101B1000821B97AFEF01C05CDF4F880F880F880FE3
:101B2000890F8883219680EF888354968D919C91AC
:101B30005597813F910508F48883EE5BFF4F5696D9
:101B40008C918083DF91CF9108950C94620D0C9459
:101B5000620D0F93DC01222371F1FC0101112DC0F4
:101B6000EB5BFF4F8081481730F131968081481739
:101B700010F53297908131978081260F2617C8F48F
:101B80006917B0F42FEF290F8217A8F4681708F42B
:101B9000682F291708F4922F961BD696ED91FC9189
:101BA000D7970480F581E02D292FCD01099503C039
:101BB000682F691748F30F910895ED5BFF4F8081FF
:101BC0006817C8F3319680816817A8F7329690811C
:101BD00031978081240F241778F4491760F42FEF90
:101BE000290F821740F7481708F4482F291708F4DF
:101BF000922F941BD2CF482F4917E8F6F2CF0F93BC
:101C0000462F00E021E0682F87ED96E00E94A90DA5
:101C10000F910895FF920F931F93CF93DF93F82EA8
:101C2000D62F142FC22F00FF0CC0622F6D1B842FE4
:101C30008F0D0E94FF0D6C2F6F198D2F810F0E9449
:101C4000FF0D01FF0CC06C2F6D1B812F8F190E949F
:101C5000FF0D6C2F6F19812F8D1B0E94FF0D03FF4D
:101C60000CC06C2F6D0F812F8F0D0E94FF0D6C2FFC
:101C70006F0D8D2F810F0E94FF0D02FF11C06C2F81
:101C80006D0F812F8F190E94FF0D6C2F6F0D812F0B
:101C90008D1BDF91CF911F910F91FF900C94FF0D41
:101CA000DF91CF911F910F91FF900895CF92DF9216
:101CB000EF92FF920F931F93CF93DF93E82ED62ED0
:101CC000C42FC22ED1E0D41BF42EF194FF0C022FAE
:101CD000262F482F6C2F80E00E940A0E10E0D7FDBF
:101CE00004C0C150F394F394DF0D1F5F812F880F60
:101CF0008F5FD80F0C2D2D2D4E2D6C2F812F0E9414
:101D00000A0E1C1760F3DF91CF911F910F91FF9086
:101D1000EF90DF90CF900895FF920F931F93CF9392
:101D2000DF93182FC62FF42ED62FD20FCD1306C057
:101D3000DF91CF911F910F91FF90089500E02F2D1B
:101D40004C2F612F87ED96E00E94A90DCF5FEECF5B
:101D50000F93242F01E0462F682F87ED96E00E9415
:101D6000A90D0F910895FF920F931F93CF93DF93C7
:101D7000C82FD62F142FF22E00FF10C041E0460FBF
:101D8000622F6D1B812F8C0F0E94A80E41E04C0F1B
:101D90006F2D6C1B8D2F810F0E94A80E01FF10C0AC
:101DA00041E04D0F6F2D6D1B812F8C1B0E94A80EE3
:101DB00041E04C0F6F2D6C1B812F8D1B0E94A80ED4
:101DC00003FF0EC041E04D0F6F2D812F8C0F0E943D
:101DD000A80E41E04C0F6F2D8D2F810F0E94A80E91
:101DE00002FF13C041E04D0F6F2D812F8C1B0E940D
:101DF000A80E41E04C0F6F2D812F8D1BDF91CF91ED
:101E00001F910F91FF900C94A80EDF91CF911F911D
:101E10000F91FF900895CF92DF92EF92FF920F9370
:101E20001F93CF93DF93E82ED62EC42FC22ED1E07E
:101E3000D41BF42EF194FF0C022F262F482F6C2F69
:101E400080E00E94B30E10E01C1748F0DF91CF91A4
:101E50001F910F91FF90EF90DF90CF900895D7FDE5
:101E600004C0C150F394F394DF0D1F5F812F880FDE
:101E70008F5FD80F0C2D2D2D4E2D6C2F812F0E9492
:101E8000B30EE2CFAF92BF92CF92DF92EF92FF926A
:101E90000F931F93CF93DF93E82EB62ED42EC22F2D
:101EA000F82EF00EC02EC60E1FEF140F180F101BC9
:101EB000DFEFD20FD60FD01B22E0402F6C2D8F2DDD
:101EC0000E940B0F21E0402F6C2D812F0E940B0FE1
:101ED00024E0402F6D2F8F2D0E940B0F28E0402F04
:101EE0006D2F812F0E940B0F1D2D101B101B133007
:101EF00088F0F3941250AA24A394A00E2A2D412F07
:101F00006B2D8F2D0E948C0E2A2D412F6D2F8F2D22
:101F10000E948C0E2C2F201B201B233088F0225077
:101F200061E06C0D4D2D8E2DDF91CF911F910F91A2
:101F3000FF90EF90DF90CF90BF90AF900C948C0EFD
:101F4000DF91CF911F910F91FF90EF90DF90CF9095
:101F5000BF90AF900895FF920F931F93CF93DF939D
:101F6000D82F162FF42EC22F00E0242F462F682FD3
:101F700087ED96E00E94A90D01E02C2F412F6D2FD7
:101F800087ED96E00E94A90D6FEF6F0D6D0F2C2F5E
:101F9000412F87ED96E00E94A90D4FEF4C0F410FA6
:101FA00000E02F2D6D2F87ED96E00E94A90DDF91A7
:101FB000CF911F910F91FF900895DC0118964C91DD
:101FC0001897ED91FC911197249130E0042E02C0F6
:101FD000359527950A94E2F7842F860F883068F0AC
:101FE00031961196FC93EE93E49198E0941B01C016
:101FF000EE0F9A95EAF72E2B885018968C938FEF58
:102000009FEF01C0880F6A95EAF7809582230895B3
:10201000FC01E60FF11D849190E0982F88273196FE
:10202000E4918E0F911D0895CF93DF9320911E07A9
:1020300030911F072817390709F490C0EC019093DD
:102040001F0780931E07FC01849180932E07319611
:10205000E491E0932F07FE013296E491E09330077C
:10206000FE013396E491E0933107FE013496E4914A
:10207000E0933207FE013596E491E0933307FE01C9
:102080003696E491E0933407FE013796E491E093AD
:102090003507FE013896E491E0933607FE01399644
:1020A000E491E0933707FE013A96E491E093380714
:1020B000FE013B96E491E0933907FE013C96E491E2
:1020C000E0933A07FE013D96E491E0933B07FE0161
:1020D0003E96E491E0933C07FE013F96E491E09345
:1020E0003D07FE017096E491E0933E0761E1CE0169
:1020F0000E9408109093400780933F0763E1CE0150
:102100000E940810909342078093410765E1CE0139
:102110000E940810909344078093430780911E0704
:1021200090911F07892BD1F080913B078093460740
:1021300040913C074093470790914507992371F0E0
:10214000913079F490913D07891714F490934607E4
:1021500080913E07841714F480934707DF91CF9155
:1021600008953091380720913A07082E000C990BFA
:10217000622F022E000C770B630F711D37FD7A95CD
:10218000861797071CF4320F30934607241734F74D
:1021900020934707E3CFCF93DF93EC016BAFEEA91A
:1021A000FFA90190F081E02D0995EEA9FFA9028019
:1021B000F381E02DCE01DF91CF910994AF92BF92D0
:1021C000CF92DF92EF92FF920F931F93CF93DF9303
:1021D00000D000D01F92CDB7DEB78C01DC01DA96BB
:1021E000AC90DA97DB96EC90DB97ED91FC91B1889F
:1021F000FE2CD12CC12CD801ED91FC911197808936
:10220000D8962D913C911C82FD828B83B8E08B9FE8
:10221000C00111248C9DA0018D9D500D9C9D500DE1
:102220001124240F351F3A832983D8011496ED9188
:10223000FC919E012F5F3F4F41E06FE0C80109957F
:10224000F3948F2D8E198A1528F4BFEFCB1ADB0A71
:10225000FB1488F20F900F900F900F900F90DF916A
:10226000CF911F910F91FF90EF90DF90CF90BF9093
:10227000AF900895CF92DF92EF92FF920F931F934A
:10228000CF93DF93EC01962F683109F44BC0B9016D
:10229000993130F49431C9F0973189F080E006C06B
:1022A000993109F461C09032C9F781E0DF91CF9193
:1022B0001F910F91FF90EF90DF90CF90089550E025
:1022C0008CE795E00E948D0AF0CF8C859D85AE85C8
:1022D000BF85892B8A2B8B2B71F4E881F981A58529
:1022E000B0E020EA36E841E050E00E949C356C877F
:1022F0007D878E879F871092E9031092E8031092E2
:10230000EB031092EA030E94220A81E69AE090937E
:1023100013048093120482E69AE09093170480934A
:102320001604C3CF2C853D854E855F8560E074E241
:1023300084EF90E00E94AF352051310941095109E5
:1023400056954795379527952093B8008E8990E04C
:102350009595879591E09093C7038093A50310927C
:10236000EB031092EA03A1CFD091EA03D13208F037
:1023700093C0C091A5030E94FD086B017C01809170
:102380003A04811164C082E080933A0481E0809332
:102390003C048FEF8093390410925E04D0935D0467
:1023A000A7EAB3E0EDE3F4E080E0D8137CC010923C
:1023B0005F0480915F04CC0FC82BC0935F048091B1
:1023C0003B04813009F073C010923B040E94FD0869
:1023D0006B017C0180915F048093BB008091ED03D1
:1023E0009091EE03A091EF03B091F003892B8A2B1B
:1023F0008B2B99F00E94FD080091ED031091EE03E4
:102400002091EF033091F0036C197D098E099F092B
:102410000617170728073907D8F18091BC0083FDFC
:10242000D9CF85EC8093BC000E94FD086B017C0134
:1024300080913A048230E9F1809139048F3F61F153
:1024400080913904803241F18091390425C0809116
:10245000ED039091EE03A091EF03B091F003892B6F
:102460008A2B8B2B09F48BCF0E94FD080091ED0382
:102470001091EE032091EF033091F0036C197D0968
:102480008E099F09061717072807390708F077CF25
:102490008091EC030E94400A1092EB031092EA0331
:1024A0001092C70302CF9D9191938F5F7ECF85EEEF
:1024B000B9CF8091ED039091EE03A091EF03B0911D
:1024C000F003892B8A2B8B2B09F4B2CF0E94FD08D5
:1024D0000091ED031091EE032091EF033091F00392
:1024E0006C197D098E099F090617170728073907F8
:1024F00008F09ECFCDCF0F931F93CF93DF938C0126
:10250000C62F642FCC32E8F4CA3208F041C0C8327A
:1025100071F1C93209F442C080E0C034D0F1CF7308
:10252000F801EC0FF11D868D8F3F91F1C031E0F085
:102530000E946A0821E0892B09F420E0F801218F2C
:1025400027C0CD3289F140F384EB8C0F823020F725
:10255000CF73C00FD12FD11D8E8D411133C061E0DB
:102560000E94C10860E08E8D0E94930811C0025E37
:102570001F4FD0E0F80181918F018F3F31F061E072
:10258000D03108F062E00E94C108DF5FD63191F7D8
:1025900081E0DF91CF911F910F91089570E090E05D
:1025A00080E00E942209F4CF85E090E0433010F0F3
:1025B00082E090E0880F991F880F991F0597019777
:1025C000F1F7E6CF62E00E94C108E2CF8E5080644E
:1025D00080937C0080917A00806980937A0083B731
:1025E000817F826083BF20E190E080E033B731607B
:1025F00033BF889533B73E7F33BF30917A0036FDC5
:10260000FCCF4091780050917900840F951F2150A4
:1026100069F720917A002F7720937A0024E096952D
:1026200087952A95E1F70895809106019091070119
:102630006AE070E00E9423382AE0269FC001279FAD
:10264000900D11244497833C21E09207BCF49093B1
:10265000BD048093BC0480910001909101016AE067
:1026600070E00E9423382AE0269FC001279F900D2A
:1026700011249093BB048093BA04089582EC91E0F6
:10268000E6CF0E94550928EE33E040E050E00E947A
:10269000AF353093DE042093DD041092DC041092F9
:1026A000DB041092D9048091D7049091D80400974C
:1026B00021F090933501809334011092D804109248
:1026C000D70480913201813011F41092C604109227
:1026D000D4041092A40308954F925F926F927F9258
:1026E0008F929F92AF92BF92CF92DF92EF92FF9222
:1026F0000F931F93CF93DF9300D000D000D0CDB7BE
:10270000DEB76B017C0180913201873009F064C132
:1027100080916A04813009F043C1A7019B0160E008
:1027200070E080E291E40E94E0350E94C43670932C
:1027300091036093900380919003909191039E8305
:102740008D838B3F9F4F0CF069C186E990E0A0E03C
:10275000B0E080932E0190932F01A0933001B093AD
:1027600031010091A2031091A3038D819E810E96E9
:102770002D813E818D9708F080C1B901330F880B00
:10278000990B0E94FC366B017C019F7720E030E0C2
:10279000A9010E94AC3718160CF059C16D817E81D9
:1027A000601B710B072E000C880B990B0E94FC36E6
:1027B0004B015C016D817E81600F711F072E000C43
:1027C000880B990B0E94FC3620E030E040E05FE38C
:1027D0000E94B13769837A838B839C83C801880FF9
:1027E000991F6D817E81681B790B8091A003909168
:1027F000A103680F791F072E000C880B990B0E940C
:10280000FC362B013C0120E030E0A901C701B601F4
:102810000E94AC37181624F0F7FAF094F7F8F09409
:1028200020E030E04AEF54E4C701B6010E94AC3723
:10283000C12CD12C760187FF06C0C12CD12C80E899
:10284000E82E8FE3F82E2DEC3CEC4CE45FE3609136
:1028500012017091130180911401909115010E9451
:10286000B137A30192010E94B1372B013C012DEC3D
:102870003CEC4CE45EE360918C0370918D0380919D
:102880008E0390918F030E94B1379B01AC01C3016D
:10289000B2010E94E1352B013C0140928C03509221
:1028A0008D0360928E0370928F03209116013091F8
:1028B00017014091180150911901C701B6010E94FA
:1028C000B13729813A814B815C810E94B1376B011C
:1028D0007C0120911A0130911B0140911C01509103
:1028E0001D01C501B4010E94B1379B01AC01C701B4
:1028F000B6010E94E135A30192010E94E1356B010E
:102900007C016091B0047091B104072E000C880B1B
:10291000990B0E94FC36A70196010E94E1350E94A6
:10292000C4367093B1046093B004072E000C880B7A
:10293000990B0E94FC366B017C0120E030EE4FEFDA
:1029400054E40E94AC3787FD8DC08D819E8118169E
:1029500019060CF480C01092B1041092B0041093C8
:10296000A1030093A0032D813E813093A303209304
:10297000A20326960FB6F894DEBF0FBECDBFDF913F
:10298000CF911F910F91FF90EF90DF90CF90BF906C
:10299000AF909F908F907F906F905F904F90089531
:1029A000823039F4A7019B0160E070E08FEA93E484
:1029B000BACE833039F4A7019B0160E070E882E26F
:1029C00094E4B1CE843009F0B6CEA7019B0160E05B
:1029D00070E08BE694E4A7CE20913401309135016C
:1029E0003A832983B90190E080E00E94FA36A7017A
:1029F00096010E94E0350E94C43670939103609363
:102A000090038091C0049091C10429813A81281BD0
:102A1000390B3093C3042093C2048DCE8D819E81E7
:102A20000596409728F480E991E0A0E0B0E091CECF
:102A30008D819E810B97449728F484EF91E0A0E06C
:102A4000B0E087CE80E293E0A0E0B0E082CEC12C7F
:102A5000D12C760156CF8FEF97E09093B1048093FD
:102A6000B0047DCF20E030E0A901C701B6010E948B
:102A70004D3618160CF473CF6ECF2F3131055CF73D
:102A8000213F3F4F09F067CF6ACF8F929F92AF925D
:102A9000BF92CF92DF92EF92FF92CF93DF9384E1C8
:102AA0000E94E612BC0190E080E00E94FA362DEC14
:102AB0003BE34EE05EE30E945236209109013091E3
:102AC0000A0140910B0150910C010E94B13720E0A6
:102AD00030EC4FE754E40E9452362091930330913A
:102AE000940340919503509196030E94E1356093C1
:102AF000930370939403809395039093960320918E
:102B000092032F5F209392032A3008F43FC020E005
:102B100030E040E251E40E94523620918504309129
:102B2000860440918704509188040E94E1356093A7
:102B3000990470939A0480939B0490939C04109240
:102B400092031092930310929403109295031092A3
:102B50009603C0900D01D0900E01E0900F01F0900F
:102B60001001A70196010E944D3687FF50C123E353
:102B700033E343E550E4C701B6010E94AC3787FD5B
:102B800046C181E080939D041092DA0460E08AE0FF
:102B90000E94930881E10E94E612BC0190E080E06F
:102BA0000E94FA362091090130910A0140910B01EF
:102BB00050910C010E94B13720E030EC4FE754E413
:102BC0000E94523620E030E040E05FE30E94E035B2
:102BD00020E030E048EC52E40E94B13720919803A5
:102BE0003091990340919A0350919B030E94E135E3
:102BF000609398037093990380939A0390939B0337
:102C0000209197032F5F209397032A30C0F020E094
:102C100030E040E251E40E9452366093C804709361
:102C2000C9048093CA049093CB0410929703109226
:102C300098031092990310929A0310929B0380912B
:102C40008A04813061F4E091DB06F091DC0630E02B
:102C500020E0409111016EE087ED96E0099561E07A
:102C600070E080E090E00E94220980E10E94E6127C
:102C7000C0906B04D0906C04E0906D04F0906E04F2
:102C8000BC0190E080E00E94FA36A70196010E9404
:102C9000E03523E333E343E35FE30E94B137A70169
:102CA00096010E94E1356B017C01C0926B04D092C9
:102CB0006C04E0926D04F0926E0420917B043091DC
:102CC0007C0440917D0450917E040E94B137A7019D
:102CD00096010E94B137A70196010E94B1374B01BE
:102CE0005C012091770430917804409179045091EF
:102CF0007A04C701B6010E94B137A70196010E946C
:102D0000B1379B01AC01C501B4010E94E1354B0113
:102D10005C012091730430917404409175045091CA
:102D20007604C701B6010E94B1379B01AC01C50111
:102D3000B4010E94E13520916F04309170044091FC
:102D40007104509172040E94E1350E94C436072E2E
:102D5000000C880B990B0E94FC364B015C016091C2
:102D60000801062E000C770B880B990B0E94FC368D
:102D70009B01AC016091C8047091C9048091CA04A0
:102D80009091CB040E94E0359B01AC01C501B401D8
:102D90000E94E1350E94C4364B017093C5046093D4
:102DA000C40480919D0390919E03880D991D90937A
:102DB0009E0380939D0320919C032F5F20939C038F
:102DC000283079F423E0959587952A95E1F790933B
:102DD000C1048093C00410929E0310929D03109230
:102DE0009C03C091DA04DC2FC11133C020E030E035
:102DF0004AE754E4C701B6010E94AC3787FD0AC018
:102E000081E08093C704CC2309F482C02DC01092C6
:102E10009D04BCCE1092C704C1E0DD23A1F320E0E5
:102E200030E04AE754E4C701B6010E94AC3787FDA1
:102E300012C080919F038F5F80939F038A3008F4B4
:102E4000ABC010929F0381E08093C6041092DA0415
:102E5000DACFC0E0E2CF1092C60410929F038091B7
:102E60009D04882309F45FC01092B1041092B0044D
:102E70001092A3031092A2031092A1031092A00338
:102E800082EC91E0A0E0B0E080932E0190932F01BE
:102E9000A0933001B0933101E090B004F090B10400
:102EA000B70190E080E00E94FA364B015C0120E01F
:102EB00030EE4FEF54E40E94AC3761E087FF0BC067
:102EC00020E030E0A901C501B4010E944D3618167A
:102ED0000CF451C060E08AE00E9493086091B00455
:102EE0007091B104072E000C880B990B0E94FC36E0
:102EF00020E030EE4FEF54E40E94523620E030E004
:102F000048EC52E40E94B1370E94CB36609398049B
:102F1000DF91CF91FF90EF90DF90CF90BF90AF9077
:102F20009F908F9008958091C70481119DCF8091CB
:102F300034019091350103962091C0043091C10471
:102F4000821B930B079738F48091A403811103C06F
:102F500081E08093A40380913201873029F4C70176
:102F6000B6010E946C1398CFB401990C880B990B91
:102F70000E94FC36F6CF81E28093800084E180934A
:102F800081008FEF97E09093890080938800F09202
:102F90008B00E0928A00A2CFCC2309F4B9CF5FCF97
:102FA000CF92DF92EF92FF920F931F93CF93DF9315
:102FB0006C01EB017B01E40EF51E10E000E0CE1584
:102FC000DF0561F06991D601ED91FC910190F081EE
:102FD000E02DC6010995080F191FF1CFC801DF9137
:102FE000CF911F910F91FF90EF90DF90CF900895B8
:102FF000089590E080E008952F923F924F925F9263
:103000006F927F928F929F92AF92BF92CF92DF92F8
:10301000EF92FF920F931F93CF93DF9300D000D0D6
:103020001F92CDB7DEB78C015C0124E0A20EB11C6B
:10303000FC01E758FF4F0190F081E02DC501099593
:103040009A8389838E3F9F4F08F040C0F801E4586F
:10305000FF4FF08048016BE7860E911CF401E08081
:10306000BE970190F081E02DC5010995F801EF5A56
:10307000FF4FE08231968F0D808337978081918159
:10308000479629813A812F3F310511F008F0FAC0A7
:10309000B3962136310540F469817A816134710536
:1030A00038F0F801E459FF4F20813181820F931FDE
:1030B0009C012F5F3F4FF9014491411121C01B82B8
:1030C000F4018081FB818F0FF401808381E090E027
:1030D0000F900F900F900F900F90DF91CF911F9155
:1030E0000F91FF90EF90DF90CF90BF90AF909F90A7
:1030F0008F907F906F905F904F903F902F900895AA
:10310000FC01449169817A814617170609F0B5C020
:1031100002960097A1F2B801615B7F4F7D836C83BB
:10312000FB01918380831086709660818C819D81E4
:103130000E94DD0FEC81FD818683F801E05AFF4F8C
:1031400060818C819D810E94DD0F782EEC81FD8154
:1031500087836801F7E7CF0ED11CF6019081EC81DF
:10316000FD81928781E0911180E0EC81FD81838770
:10317000F801EF59FF4F6080662D8C819D810E9480
:10318000DD0F382EF801EE59FF4FF0806F2D8C8146
:103190009D810E94DD0F482E8FEF8F0DEE24E3946A
:1031A000F12C970102C0220F331F8A95E2F73A8370
:1031B0002983F801ED59FF4F5080652D8C819D8149
:1031C0000E94DD0F5A94970101C0220F5A94EAF72A
:1031D000821B8B83EC81FD81868118160CF070CFE9
:1031E0006A9401C0EE0C6A94EAF782818E19380E57
:1031F00032828381F9818F0F84198719EC81FD81D7
:103200008383148215829801235A3F4F3A8329837E
:1032100078013EE5E30EF11CE981FA8160818C8141
:103220009D810E94DD0F482EF70160818C819D8178
:103230000E94DD0F382EEC81FD8114816580542CB5
:10324000EC81FD812680211A818581110FC0628168
:1032500043818385F6018083222D521408F4252DA5
:10326000460D610F00E0C5010E94A90D521408F43B
:103270003CC05218639410E0E3CFF9012491820F0F
:10328000911D16CFF801E059FF4FC080D180C80EC4
:10329000D91E760160E0C7010E940810C80ED91E31
:1032A00062E0C7010E940810F4E0EF0EF11C2981D2
:1032B0003A818217930770F3F601849190E0982F7A
:1032C00088273196E4918E2B009709F4F8CE298156
:1032D0003A812817390719F4C60103961ACFF60167
:1032E0003296E491CE0ED11CE7CF150DEC81FD8115
:1032F00014836582532CEC81FD812680211A628122
:1033000043818285F6018083222D521408F4252DF5
:10331000460D610F00E0C5010E94A90D521420F076
:103320005218639410E0E7CF150DEC81FD811483F2
:10333000658261E0CF010E94DD0F81117CCFEC81BD
:10334000FD81858187150CF467CF8285F601808326
:10335000B7CEFB0101900020E9F73197AF01461B82
:10336000570BDC01ED91FC910280F381E02D099473
:103370008F929F92AF92BF920F931F93CF93DF9341
:10338000CDB7DEB7A1970FB6F894DEBF0FBECDBFA5
:1033900019A2423008F44AE08E010F5D1F4F842EBF
:1033A000912CB12CA12CA50194010E94AF35E62FE0
:1033B000B901CA01EA3004F5E05DD801EE938D0150
:1033C000232B242B252B79F790E080E0109729F010
:1033D000BD0183ED96E00E94A919A1960FB6F8945D
:1033E000DEBF0FBECDBFDF91CF911F910F91BF9078
:1033F000AF909F908F900895E95CDFCFBC0190E083
:1034000080E04AE00C94B819CF92DF92EF92FF92DD
:10341000CF93DF936C01990FEE08FF08F7FE19C0F8
:103420006DE283ED96E00E94FC17EC01662777279A
:10343000CB016C197D098E099F094AE00E94B819D9
:103440008C0F9D1FDF91CF91FF90EF90DF90CF9079
:1034500008954AE0C701B601DF91CF91FF90EF9048
:10346000DF90CF900C94B8194F925F926F927F9239
:103470008F929F92AF92BF92CF92DF92EF92FF9284
:10348000CF93DF936B017C01D42FAC019B010E9491
:103490001E386BEE71E0811126C026013701E894D9
:1034A00077F82FEF3FEF4FE75FE7C301B2010E94CC
:1034B0001E3881110CC02FEF3FEF4FE75FE7C301CC
:1034C000B2010E944D366FEE71E0181664F02FEFD6
:1034D0003FEF4FE75FE4C701B6010E94AC37181613
:1034E000A4F463EF71E083ED96E0DF91CF91FF905C
:1034F000EF90DF90CF90BF90AF909F908F907F9094
:103500006F905F904F900C94A9192FEF3FEF4FE70A
:103510005FECC701B6010E944D3687FDE2CF20E087
:1035200030E0A901C701B6010E944D36912C812CD3
:1035300087FF0AC06DE283ED96E00E94FC174C0104
:10354000F7FAF094F7F8F094CD2FA12C60E070E03A
:1035500080E09FE3AD1640F420E030E040E251E42B
:103560000E945236A394F6CFA70196010E94E1353E
:103570002B013C010E94CB365B016C014AE00E94AA
:10358000B8197C01E80CF91CDD23A9F1C601B501CD
:103590000E94FA369B01AC01C301B2010E94E035E2
:1035A0004B015C016EE283ED96E00E94FC17E80E91
:1035B000F91EC15000F120E030E040E251E4C501C5
:1035C000B4010E94B1372B013C010E94CB364B0164
:1035D000CB010E94FE19E80EF91EB40190E080E0D4
:1035E0000E94FA369B01AC01C301B2010E94E03592
:1035F0004B015C01DECFC701DF91CF91FF90EF90CF
:10360000DF90CF90BF90AF909F908F907F906F9002
:103610005F904F9008950C94A91985ED8093BC009C
:103620008091ED039091EE03A091EF03B091F00330
:103630000796A11DB11D23E0B695A795979587958F
:103640002A95D1F72091BC0024FD03C010923A04C2
:1036500008954091ED035091EE036091EF03709156
:10366000F003452B462B472B69F30097A105B105C5
:1036700041F025E32A95F1F700000197A109B1096E
:10368000E1CF8091EC030C94400AFC01A081B18150
:1036900050962C9182AD38E0839FC0011124289F61
:1036A000A001299F500D112470E060E080AD91AD24
:1036B0000C948D391F93CF93DF93EC010E94DE10A1
:1036C0001BAD8AAD180FE881F9818189181768F060
:1036D000EC81FD8130E020E040E060E1CE01099521
:1036E00080E0DF91CF911F910895FE01EC58FF4FCC
:1036F0008081882319F0CE010E94451B612FCE01E5
:103700000E94CB1081E0EDCFCF93DF93EC01FC0161
:10371000EC58FF4F8081882319F0CE010E94451B91
:1037200060E0CE01DF91CF910C94CB10CF93DF936B
:10373000EB010E9467358883CE01DF91CF91089518
:10374000CF93DF93EB010E9467358883CE01DF9131
:10375000CF9108950F931F93CF93DF938C01EB01CB
:103760000E9467358883C80101960E946735898366
:10377000CE01DF91CF911F910F910895CF92DF92EB
:10378000EF92FF920F931F93CF93DF93EB017B0197
:1037900024E0E20EF11C8B016C01C61AD70AC601A7
:1037A000800F911F0E946735F80181938F01EE15FC
:1037B000FF05A9F7CE01DF91CF911F910F91FF90E7
:1037C000EF90DF90CF900895FF920F931F93CF93C8
:1037D000DF93EC01F62E08811981C8010E9467353C
:1037E000F81621F06F2DC8010E946F35CE01DF91D0
:1037F000CF911F910F91FF900895EF92FF920F9339
:103800001F93CF93DF9300D0CDB7DEB78C017B0140
:103810009A838983FB016081CE0101960E94E41B9B
:103820000F5F1F4F1A830983F7016181CE01019653
:103830000E94E41BC7010F900F90DF91CF911F9161
:103840000F91FF90EF9008950F931F93CF93DF9305
:1038500000D0CDB7DEB78B019A838983FB016081ED
:10386000CE0101960E94E41BC8010F900F90DF91DA
:10387000CF911F910F9108950F931F93CF93DF93D3
:1038800000D0CDB7DEB78B019A838983FB016081BD
:10389000CE0101960E94E41BC8010F900F90DF91AA
:1038A000CF911F910F910895AF92BF92CF92DF9267
:1038B000EF92FF920F931F93CF93DF9300D0CDB77A
:1038C000DEB78B016B0124E0C20ED11C7B015C01D1
:1038D000A61AB70AC5018E0D9F1D9A838983F70129
:1038E00061917F01CE0101960E94E41BEC14FD045E
:1038F00089F7C8010F900F90DF91CF911F910F9121
:10390000FF90EF90DF90CF90BF90AF9008952F92EF
:103910003F924F925F926F927F928F929F92AF925F
:10392000BF92CF92DF92EF92FF920F931F93CF93AC
:10393000DF93CDB7DEB7AA970FB6F894DEBF0FBE00
:10394000CDBF88E0E2E4F1E0DE01519601900D92F6
:103950008A95E1F764E070E084E090E00E944C38E2
:103960009EA38DA364E070E087E090E00E944C3855
:1039700098A78FA364E070E084E090E00E944C3848
:103980009AA789A764E070E084E090E00E944C3838
:103990009CA38BA364E070E080E190E00E944C382F
:1039A0009E8F8D8F30E0C32E31E0D32EADA0BEA010
:1039B00020E1A20EB11C09A51AA5EDA0FEA0412C84
:1039C000512C40E8642E4FE3742ED7014D925D9246
:1039D0006D927D927D01F601619171916F01072ECB
:1039E000000C880B990B0E94FC36D8016D937D93D7
:1039F0008D939D938D01EA14FB0439F7EFA1F8A58F
:103A0000FA8FE98F9F01245E3F4F3C8F2B8F8F01F0
:103A1000D8011D921D921D921D928D01FE0171967D
:103A20001F01CDA0DEA0812C912C5401D6014D9018
:103A30005D906D907D906D01A3019201C501B4016F
:103A40000E94E1354B015C01F101619171911F010F
:103A500096012450310938A32F8F072E000C880BB4
:103A6000990B0E94FC36A30192010E94B137AF8DE1
:103A7000B8A16D937D938D939C931397CE14DF041F
:103A8000A9F6F801349780829182A282B382EB8DED
:103A9000FC8D0E171F0709F0BBCF2BA13CA138A34B
:103AA0002F8F690130E1C30ED11C0BA11CA189A588
:103AB0009AA540969C8F8B8FD8011D921D921D92C6
:103AC0001D928D01FE0171961F01E9A4FAA4812CBB
:103AD000912C5401D7014D905D906D907D907D01AA
:103AE000A3019201C501B4010E94E1354B015C01C3
:103AF000F101619171911F019701245031093AA39D
:103B000029A3072E000C880B990B0E94FC36A301F9
:103B100092010E94B137A9A1BAA16D937D938D93B3
:103B20009C931397EB8DFC8DEE15FF0599F6F8012C
:103B3000349780829182A282B3820C151D0509F010
:103B4000BBCF4D8D5E8D405C5F4F2D8D3E8D90E0E7
:103B500080E0F901E80FF91FA98DBA8DA80FB91FF0
:103B6000CD90DD90ED90FC90C082D182E282F38214
:103B700004968031910569F7898D9A8D04969A8F04
:103B8000898F205F3F4F4217530709F72D8D3E8DD8
:103B90003A8F298F1C8E1B8EB12CA12CA98DBA8D2A
:103BA000CD90DD90ED90FC90E894F7F81501BFEF13
:103BB0002B1A3B0AE98DFA8DFAA3E9A3850141018D
:103BC000F3E08F16910409F1A9A1BAA154964D9082
:103BD0005D906D907C905797E89477F8A7019601D7
:103BE000C301B2010E94AC3718166CF026013701F0
:103BF000BFEF8B1A9B0AE9A1FAA17496FAA3E9A375
:103C000073016201DDCF8401F3CF0A151B0509F4AE
:103C10004AC0AD8DBE8D2B8D3C8DA20FB31F000F02
:103C2000111F000F111FF801EE0FFF1FEE0FFF1FF6
:103C3000AD8CBE8CAE0EBF1E90E080E04D915D91CC
:103C40006D917D91F501C080D180E280F3809D016E
:103C500024503109F901C082D182E282F382F50158
:103C600041935193619371935F0101968430910563
:103C700029F7EF8DF8A180819181A281B3812BA1D9
:103C80003CA1020F131FF8014081518162817381B1
:103C9000EF8DF8A14083518362837383F8018083A1
:103CA0009183A283B3836F8C78A0F4E06F0E711CB4
:103CB00080EFA82EBB24BA942B8D3C8DA21AB30A98
:103CC000098D1A8D23014101780134E1E30EF11CC5
:103CD0006101F501EE0DFF1D8B8D9C8DE80FF91F25
:103CE000D80150962D913D914D915C9153976081F3
:103CF0007181828193810E94B137E98DFA8D208193
:103D00003181428153810E9452369B01AC01D7011F
:103D10006D917D918D919C910E94E035F7016193A9
:103D20007193819391937F01FFEFCF1ADF0A24E013
:103D3000C216D10471F6D201CD90DD90ED90FD90C8
:103D40002D01FD013497FAA3E9A3AF8DB8A12D9100
:103D50003D914D915C91F8016089718982899389C7
:103D60000E94B137A98DBA8D2D913D914D915C91F5
:103D70000E9452369B01AC01C701B6010E94E0359A
:103D8000E9A1FAA16083718382839383FFEF8F1A85
:103D90009F0A005F1F4F20E1A21AB10834E083168A
:103DA000910409F091CFA98DBA8D5496BA8FA98F3D
:103DB000EB8DFC8D7096FC8FEB8F510178A26F8E8E
:103DC000F3E02F16310409F0E9CE8BA09CA080E12E
:103DD000880E911C8E01035F1F4FED8CFE8C9CE3BF
:103DE000E90EF11CF401B291A291929182914F01DE
:103DF000F80180839183A283B3835101D12CC12C1C
:103E0000D8014D905D906D907C90BFEFAB1ABB0ACE
:103E1000E4E0CE0ED11CF4E0AF16B104E9F0F801F5
:103E2000EC0DFD1D2081318142815381F701EC0DA4
:103E3000FD1D60817181828193810E94B1379B0158
:103E4000AC01C301B2010E94E035D8016D937D93AE
:103E50008D939C931397D4CFF701208131814281B8
:103E60005381C301B2010E945236D8016D937D93F4
:103E70008D939C931397B1E02B1A310804501109CC
:103E8000E4E1EE1AF108FFEF2F163F0609F0AACF82
:103E90008DA19EA10E9404398FA198A50E9404398A
:103EA00089A59AA50E9404398BA19CA10E9404397E
:103EB0008D8D9E8D0E94043989819A81AB81BC8150
:103EC00080936F0490937004A0937104B093720474
:103ED0008D819E81AF81B885809373049093740423
:103EE000A0937504B093760489859A85AB85BC85CB
:103EF0008093770490937804A0937904B0937A0424
:103F00008D859E85AF85B88980937B0490937C04D2
:103F1000A0937D04B0937E04AA960FB6F894DEBFFA
:103F20000FBECDBFDF91CF911F910F91FF90EF900A
:103F3000DF90CF90BF90AF909F908F907F906F90C9
:103F40005F904F903F902F9008953F924F925F92D5
:103F50006F927F928F929F92AF92BF92CF92DF9299
:103F6000EF92FF920F931F93CF93DF93633021F56E
:103F70008901C82F0E944113C33041F0C43009F4B5
:103F80003FC3C230C9F442E050E03CC380913201EB
:103F9000083E134008F014C3813001F590919D0450
:103FA00091110AC09091C704911106C08093B80482
:103FB0001092D9041092A403DF91CF911F910F9119
:103FC000FF90EF90DF90CF90BF90AF909F908F9039
:103FD0007F906F905F904F903F900895823009F0EE
:103FE00055C080919404811104C084E08093320113
:103FF000E3CF8B3F11F0813021F483E080933201D5
:10400000DBCF8F3F11F0853021F485E080933201C2
:10401000D3CF8E3F11F0843021F486E080933201BB
:10402000CBCF8C3F11F0823021F488E080933201B5
:10403000C3CF8D3F19F0833009F0BECF80E090E010
:10404000A0E4B1E480931A0190931B01A0931C019A
:10405000B0931D018DEC9CECACE0B0E480931601B4
:1040600090931701A0931801B09319018AE999E977
:10407000A9E9BFE38093120190931301A093140167
:10408000B093150187E08093320196CF833009F019
:1040900061C0809192048130A1F034F481118CCF01
:1040A00082E08093320188CF823041F1833009F081
:1040B00083CF8091910481113BC083E08093910470
:1040C0007BCF90919104911103C08093910474CFA0
:1040D000913009F071CF80919004811104C081E08A
:1040E0008093900469CF6AE171E081E090E00E94E2
:1040F000541C10929004109291045ECF8091910410
:10410000811104C082E08093910456CF823009F07F
:1041100053CF80919004882311F366E171E085E02C
:1041200090E00E94541C109290041092910444CF8D
:10413000833009F041CF80919004882381F262E1BD
:1041400071E089E090E00E94541C1092900410925B
:10415000910432CF843071F580918F04813059F011
:10416000823009F09BCF80918E04811117C082E0CC
:1041700080938E0421CF90918E04911103C080937F
:104180008E041ACF913009F017CF66E371E08DE00D
:1041900090E00E94FD1B10928E040ECF823009F039
:1041A0000BCF63E371E081E190E00E94241C109248
:1041B0008E0402CF853009F065C080918D04813076
:1041C00079F10CF46BCF823009F43EC0833009F0F2
:1041D000F3CE80918A048111EFCE80918C0491E01E
:1041E000892780938C046CE874E082E290E00E945E
:1041F0003C1C6CE874E082E290E0DF91CF911F916B
:104200000F91FF90EF90DF90CF90BF90AF909F9075
:104210008F907F906F905F904F903F900C94A01B79
:1042200080918A04811104C081E080938A04C4CE05
:10423000813009F0C1CE61E171E082E190E00E943D
:10424000241C10928A04B8CE90918A04911103C064
:1042500080938A04B1CE923009F0AECE6BE874E060
:1042600081E290E00E943C1C80918B04882339F00D
:104270008FEA91E00E94130710928A049DCE85EE8A
:1042800091E0F8CF863009F045C0809189048130F3
:1042900071F00CF403CF8230F1F0833009F08CCE52
:1042A0009091840491112AC08093840485CE8091DA
:1042B0008404811104C081E0809384047DCE813028
:1042C00009F07ACE69E071E083E190E00E94541C2D
:1042D0001092840471CE90918404911103C0809354
:1042E00084046ACE923009F067CE65E874E087E115
:1042F00090E00E94541C109284045ECE933009F02A
:104300005BCE6DE071E08CE190E00E94541C109255
:10431000840452CE883009F0ACC08091830481308F
:1043200071F00CF4BBCE8230E9F0833009F044CE5A
:1043300090918004911137C0809380043DCE90917C
:104340008004911103C08093800436CE913009F02F
:1043500033CE68E071E080E290E00E94241C10926D
:1043600080042ACE80918004811126CE8091810420
:1043700091E089278093810461E874E08BE190E00B
:10438000DF91CF911F910F91FF90EF90DF90CF9031
:10439000BF90AF909F908F907F906F905F904F9065
:1043A0003F900C943C1C933009F006CE809182041F
:1043B000882309F45BC0C12CD12C760110E000E009
:1043C000D0E0C0E032E3432E40E1542E5BE4352ED2
:1043D000A895460157012AE0B594A794979487942D
:1043E0002A95D1F73401C401801B910B0597E0F0A9
:1043F00087ED96E00E94841B40924E0750924F0733
:10440000C3010E94FE1930924E0750924F0767EF8A
:1044100071E083ED96E00E940B1B87ED96E00E9411
:104420005A1B8111E9CF840160E0CE010E946F35F3
:10443000219684E6C80ED11CE11CF11CC11490E940
:10444000D90691E0E906F10419F6A89584B7877FAB
:1044500084BF8091600088618093600080E18093D8
:1044600060008091600088608093600010928004FA
:10447000A3CD873009F0A0CDE0917F04E73008F0AC
:104480009BCD0E2E000CFF0BE85BFD4D0C943738D6
:104490004F2277228F22A822C122DA224F2282E0E5
:1044A0008093320110927F046AE171E081E090E034
:1044B0000E94BE1B66E171E085E090E00E94BE1B99
:1044C00062E171E089E090E0DF91CF911F910F915F
:1044D000FF90EF90DF90CF90BF90AF909F908F9024
:1044E0007F906F905F904F903F900C94BE1B809197
:1044F0006A04811106C081E080936A048093DA0423
:104500005BCD813009F058CD60E071E083E290E04E
:104510000E94FD1B10926A041092DA044DCD809126
:104520006A04811107C082E080936A0481E080936D
:10453000DA0442CD823009F03FCD62E071E087E2DB
:1045400090E00E94FD1B10926A041092DA0434CDB0
:1045500080916A04811107C083E080936A0481E03E
:104560008093DA0429CD833009F026CD64E071E030
:104570008BE290E00E94FD1B10926A041092DA0414
:104580001BCD80916A04811107C084E080936A0486
:1045900081E08093DA0410CD843009F00DCD66E01F
:1045A00071E08FE290E00E94FD1B10926A0410926D
:1045B000DA0402CD0E94871C86E080937F04FCCC45
:1045C0008130D1F482E08093320169EF71E08FEDA8
:1045D00094E0DF91CF911F910F91FF90EF90DF90CA
:1045E000CF90BF90AF909F908F907F906F905F9093
:1045F0004F903F900C940B1B873039F381E0E3CF51
:1046000041E050E0E0913201E150E83008F0D4CCD4
:10461000F0E0E35FFC4D0C943738152355237823E5
:10462000F0234424852489254F252091340130919D
:1046300035014230510571F5265F3F4F309335010A
:10464000209334010E94141340913401509135019C
:104650008091BC049091BD042091BA043091BB04B8
:1046600084179507D0F43093350120933401DF91FE
:10467000CF911F910F91FF90EF90DF90CF90BF905F
:10468000AF909F908F907F906F905F904F903F90F2
:104690000C9441132A503109D1CF4217530738F7F0
:1046A0009093350180933401E2CF209197044230FA
:1046B000510579F4211180CC8091930481117CCC37
:1046C00081E080939704809194048F5F8093940499
:1046D00073CC211171CC8091930481116DCC81E058
:1046E000809393048091940481508093940464CCCB
:1046F000C12CD12C90E8E92E9FE3F92E41305105D1
:1047000031F4C12CD12C80E8E82E8FEBF82E80916B
:10471000900420E030E040E85FE3882321F02DECB6
:104720003CEC4CEC5DE3809191048130D1F154F488
:10473000882329F18091920484300CF44BC01092AC
:1047400092043ACC823011F08330A1F7C701B60150
:104750000E94B1379B01AC01609116017091170165
:1047600080911801909119010E94E1356093160122
:10477000709317018093180190931901DBCF60911A
:104780009204062E000C770B880B990B0E94FC36C6
:10479000A70196010E94E1350E94C43660939204FD
:1047A000C9CFC701B6010E94B1379B01AC0160912E
:1047B0001A0170911B0180911C0190911D010E94B2
:1047C000E13560931A0170931B0180931C01909353
:1047D0001D01B0CF87FFF0CB83E080939204ECCB38
:1047E00020918E04211111C020918F044230510577
:1047F00051F42F5F20938F0480918F0483302CF12C
:1048000010928F04D9CB2150F5CF213089F420911B
:104810003601309137014230510539F4225E3F4F65
:104820003093370120933601E7CF2E513109F8CF6D
:10483000223011F7209133014230510521F42F5FCE
:1048400020933301D9CF2150FBCF87FF04C082E0F2
:1048500080938F04B1CB8091360190913701883ECF
:1048600023E0920738F08EE190E090933701809337
:104870003601A2CB4E9708F09FCB87EE93E0909342
:1048800037018093360198CB20918A04211117C0FB
:1048900020918D044230510551F42F5F20938D04F7
:1048A00080918D0484302CF010928D0485CB2150A2
:1048B000F5CF87FF81CB83E080938D047DCB2130C2
:1048C000D1F4209111014230510569F42B5F2093FE
:1048D0001101809111019EEF980F933030F485E023
:1048E0008093110169CB2550F2CF811165CB8FEFF9
:1048F0008093110161CB223009F05ECB80918B0453
:1049000091E0892780938B0457CB20918404211157
:1049100017C0209189044230510551F42F5F209334
:1049200089048091890484302CF01092890444CB4E
:104930002150F5CF87FF40CB83E0809389043CCBA7
:10494000213049F56091090170910A0180910B01B4
:1049500090910C014230510579F42AE037ED43E2A1
:104960005CE30E94E1356093090170930A01809332
:104970000B0190930C0120CB2AE037ED43E25CE37E
:104980000E94E0356093090170930A0180930B0146
:1049900090930C0111CB223049F560918504709100
:1049A000860480918704909188044230510579F4FF
:1049B0002DEC3CEC4CEC5DE30E94E135609385040A
:1049C000709386048093870490938804F5CA2DEC35
:1049D0003CEC4CEC5DE30E94E03560938504709301
:1049E00086048093870490938804E6CA233009F0F4
:1049F000E3CA60910D0170910E0180910F019091B9
:104A000010014230510569F52DEC3CEC4CEC5DE3B6
:104A10000E94E13560930D0170930E0180930F01A8
:104A200090931001C0900D01D0900E01E0900F0105
:104A3000F090100120E030E040EF51E4C701B601F2
:104A40000E94AC371816A4F48DEC9CECACE4B0E4F6
:104A500080930D0190930E01A0930F01B09310016C
:104A6000ABCA2DEC3CEC4CEC5DE30E94E035D2CFC0
:104A70002DEC3CEC4CE450E4C701B6010E944D36ED
:104A800087FF9ACA80E090E0A0EFB1E480930D0127
:104A900090930E01A0930F01B09310018DCA209145
:104AA0008004211117C0209183044230510551F434
:104AB0002F5F209383048091830484302CF0109224
:104AC00083047ACA2150F5CF87FF76CA83E08093AA
:104AD000830472CA213099F42091080142305105B3
:104AE00061F42F5F20930801809108018D59873C64
:104AF00008F462CA109208015FCA2150F3CF233034
:104B000009F05ACA8091820491E089278093820437
:104B100053CA20916A04211117C020917F044230AA
:104B2000510551F42F5F20937F0480917F048730DB
:104B30002CF010927F0440CA2150F5CF87FF3CCA69
:104B400086E080937F0438CA2130A9F420910001C7
:104B5000309101014230510539F42F5F3F4F3093BE
:104B600001012093000128CA21503109309301012D
:104B70002093000121CA2230A9F420910201309132
:104B800003014230510539F42F5F3F4F3093030149
:104B90002093020111CA215031093093030120935F
:104BA00002010ACA2330A9F42091040130910501C1
:104BB0004230510539F42F5F3F4F30930501209368
:104BC0000401FAC9215031093093050120930401F1
:104BD000F3C9243009F0F0C9209106013091070192
:104BE0004230510539F42F5F3F4F30930701209336
:104BF0000601E2C9215031093093070120930601D3
:104C0000DBC91F920F920FB60F9211242F933F937F
:104C10004F935F936F937F938F939F93AF93BF93C4
:104C2000EF93FF938FED94E00E947107FF91EF9156
:104C3000BF91AF919F918F917F916F915F914F91B4
:104C40003F912F910F900FBE0F901F9018951F92BC
:104C50000F920FB60F9211242F938F939F93EF9380
:104C6000FF93E091EF04F091F0048081E091F5046E
:104C7000F091F60482FD1BC090818091F8048F5F53
:104C80008F732091F904821741F0E091F804F0E06D
:104C9000E152FB4F958F8093F804FF91EF919F9124
:104CA0008F912F910F900FBE0F901F9018958081BC
:104CB000F4CF1F920F920FB60F9211242F933F93B0
:104CC0008F939F93AF93BF938091610490916204FF
:104CD000A0916304B09164043091600423E0230F39
:104CE0002D3758F50196A11DB11D209360048093C6
:104CF000610490936204A0936304B0936404809170
:104D0000650490916604A0916704B09168040196CF
:104D1000A11DB11D8093650490936604A093670460
:104D2000B0936804BF91AF919F918F913F912F9164
:104D30000F900FBE0F901F90189526E8230F029634
:104D4000A11DB11DD2CF1F920F920FB60F92112449
:104D50002F933F934F935F936F937F938F939F9383
:104D6000AF93BF93EF93FF938091B900887F803614
:104D700009F44AC0F0F5883209F4A7C018F580316B
:104D800009F49BC0B8F4882309F4F9C0883009F409
:104D900094C0FF91EF91BF91AF919F918F917F91BF
:104DA0006F915F914F913F912F910F900FBE0F9098
:104DB0001F901895883109F488C0803251F780938C
:104DC000390414C0803409F49DC040F48033B9F331
:104DD0008833F9F68093390485ECB0C0803509F446
:104DE00085C0883509F496C0883499F60E940D1B59
:104DF000D0CF883909F48CC038F5883729F050F4C1
:104E0000883611F0803729F683E080933A041092B7
:104E1000380457C0883809F47BC0803919F08038CD
:104E200009F0B7CF80913804803208F071C0E0916A
:104E3000380481E08E0F809338048091BB00F0E04D
:104E4000E85EFB4F80833DC0803B39F0E0F4803A60
:104E500009F479C0883A09F09CCF84E080933A0441
:104E60001092150410921404E0911204F0911304AE
:104E700009958091140481110FC081E0809314047E
:104E80001092F20309C0803C09F4A6CF883C09F4D3
:104E9000A3CF883B09F07DCFE091150481E08E0F10
:104EA00080931504F0E0EE50FC4F80818093BB00AE
:104EB000909115048091140429C080915F0480931F
:104EC000BB0085EC8093BC0064CF90915E04809120
:104ED0005D04981758F5E0915E0481E08E0F809391
:104EE0005E04F0E0E35CFB4F8081E9CFE0915E047B
:104EF00081E08E0F80935E048091BB00F0E0E35C64
:104F0000FB4F808390915E0480915D049817C8F2F6
:104F100085E8D8CFE0915E0481E08E0F80935E0437
:104F20008091BB00F0E0E35CFB4F808380913C0408
:104F300081115CCF81E080933B0484EA8093BC00C4
:104F400010923A0426CF85EC8093BC0010923A046C
:104F500080913804803230F4E0913804F0E0E85E6B
:104F6000FB4F10826091380470E0E0911604F091DC
:104F7000170488E194E00995109238040ACF109242
:104F8000390434CF1895CF93DF93EC01862F1B8221
:104F900091E09C831D8625EA3FE1388F2F8B688343
:104FA00019829E874AE050E060E070E04F87588B9E
:104FB000698B7A8B44E650E060E070E04B8B5C8B51
:104FC0006D8B7E8B62E00E94C1088981813041F443
:104FD00088810E946A0821E0892B31F420E004C016
:104FE00021E08E858823D1F32A83DF91CF91089524
:104FF000CF931092E2041092E10488EE93E0A0E0D7
:10500000B0E08093E3049093E404A093E504B093AC
:10501000E60429EB31E03093E0042093DF0425EC33
:1050200030E03093EC042093EB0424EC30E0309338
:10503000EE042093ED0420EC30E03093F004209354
:10504000EF0421EC30E03093F2042093F10422ECE1
:1050500030E03093F4042093F30426EC30E03093F6
:10506000F6042093F5041092F8041092F9041092BB
:10507000FA041092FB0410927F0510927E05809333
:10508000800590938105A0938205B09383058BECF6
:1050900091E090937D0580937C051092D606109246
:1050A000D50684EA96E090934D0780934C071092C2
:1050B0004E0710924F071092EF068DED91E09093FE
:1050C000D4068093D3061092D8061092D706109279
:1050D000EC061092E3061092E4061092E506109298
:1050E000E6068FEF8093ED068093F106E5EFF6E09C
:1050F0008BE097E0CFEFC1938E179F07E1F787E62C
:105100009BE09093DC068093DB0686E59CE0909321
:10511000DE068093DD068AE391E19093E0068093BA
:10512000DF068BE792E19093E2068093E10630E0A0
:1051300020E040E069E087ED96E00E94670B109266
:105140001F0710921E078EEA96E090930C0780933B
:105150000B0788E895E09093100780930F0782E093
:10516000809311071092120710922B071092490793
:1051700081E080934A0780934B0785EE91E09093FE
:105180000E0780930D0787ED96E00E94A50DE09134
:105190000D07F0910E070280F381E02D87ED96E078
:1051A000099581E197E09093210780932007C093B0
:1051B0000007C0930107C093020763E08AEB96E003
:1051C0000E94C32762E081EA96E00E94C32764E060
:1051D00088E896E0CF910C94C327CF93DF9300D05B
:1051E000CDB7DEB7789484B5826084BD84B5816024
:1051F00084BD85B5826085BD85B5816085BD8091A2
:105200006E00816080936E00109281008091810019
:105210008260809381008091810081608093810011
:10522000809180008160809380008091B1008460D3
:105230008093B1008091B00081608093B000809134
:105240007A00846080937A0080917A0082608093F3
:105250007A0080917A00816080937A0080917A0050
:10526000806880937A001092C10069E674E090E053
:1052700080E00E94961B80916904823010F01092A9
:1052800069048091690481117AC06AE171E081E06A
:1052900090E00E94541C66E171E085E090E00E947D
:1052A000541C62E171E089E090E00E94541C66E3C6
:1052B00071E08DE090E00E94FD1B63E371E081E10D
:1052C00090E00E94241C61E171E082E190E00E9484
:1052D000241C69E071E083E190E00E94541C65E8C1
:1052E00074E087E190E00E94541C61E874E08BE177
:1052F00090E00E943C1C6DE071E08CE190E00E9427
:10530000541C68E071E080E290E00E94241C6BE88D
:1053100074E081E290E00E943C1C6CE874E082E260
:1053200090E00E943C1C60E071E083E290E00E940B
:10533000FD1B62E071E087E290E00E94FD1B64E0EB
:1053400071E08BE290E00E94FD1B66E071E08FE26D
:1053500090E00E94FD1B64E371E083E390E00E9413
:10536000FD1B81E090E09A838983BE016F5F7F4FD0
:1053700090E080E00E94FD1B81E0809369048091B1
:105380006904813009F06CC06AE171E081E090E06D
:105390000E94BE1B66E171E085E090E00E94BE1BAA
:1053A00062E171E089E090E00E94BE1B66E371E07B
:1053B0008DE090E00E94AA1B63E371E081E190E040
:1053C0000E94961B61E171E082E190E00E94961BD1
:1053D00069E071E083E190E00E94BE1B65E874E043
:1053E00087E190E00E94BE1B61E874E08BE190E0F1
:1053F0000E94A01B6DE071E08CE190E00E94BE1B5A
:1054000068E071E080E290E00E94961B6BE874E037
:1054100081E290E00E94A01B6CE874E082E290E0E0
:105420000E94A01B60E071E083E290E00E94AA1B52
:1054300062E071E087E290E00E94AA1B64E071E004
:105440008BE290E00E94AA1B66E071E08FE290E0A0
:105450000E94AA1B64E371E083E390E00E94AA1B10
:1054600062E084E00E94C10862E083E00E94C1081B
:1054700062E082E00E94C10860E080E10E94C10811
:1054800062E08EE00E94C10860E084E10E94C108F1
:1054900060E081E10E94C10861E088E00E94C108EB
:1054A00061E08AE00E94C10860E08AE00E949308FF
:1054B00060E088E00E949308E091DB06F091DC0652
:1054C00030E020E040E06AE087ED96E0099587ED66
:1054D00096E00E94841B87ED96E00E945A1B811182
:1054E000FACF60E087ED96E00E94CB10E091DB06FA
:1054F000F091DC0630E020E040E06BE087ED96E0E4
:10550000099580EC9CE090934D0780934C07E091C7
:10551000DB06F091DC0630E020E0409111016EE006
:1055200087ED96E0099580918B04882309F449C2A0
:105530008FEA91E00E94130787ED96E00E94841B9A
:1055400002E315E18AEB96E00E94141000934E07E7
:1055500010934F076EE072E083ED96E00E940B1B04
:1055600087ED96E00E945A1B8111ECCF80917A0062
:10557000866080937A0080917A00886080937A00B8
:105580001AE00E9445151150E1F70E941413809112
:105590008104882309F418C281E08093DA040E9410
:1055A000871CF8EE8F2EF3E09F2EA12CB12CEAE29F
:1055B0002E2EE1E03E2EA8958AEB96E00E9461092E
:1055C00081EA96E00E94610988E896E00E946109FC
:1055D0008091CC04811107C087ED96E00E94841B66
:1055E00081E08093CC048091D40481110C943434F4
:1055F00080913201813009F0FEC28091C604109181
:105600002B019091C70491110C94AE348111E8C123
:1056100080E594E00E9414101E5E2091C404309135
:10562000C504233631050CF4D2C110924E071093F5
:105630004F078091BE049091BF044091DA04442347
:1056400069F04091C2045091C3044C5F5F4F4930F0
:10565000510520F42091C0043091C104281B390B5E
:10566000121613060CF0B7C101969093BF048093F5
:10567000BE048091BE049091BF040E94041A82EC83
:1056800090E00E941410C090BA04D090BB040D2C7E
:10569000000CEE08FF08209134013091350150E0F4
:1056A00040E02C193D094E095F09A6E3B0E00E94D5
:1056B0009C352091BC043091BD04032E000C440B9A
:1056C000550B2C193D094E095F090E947D35DA0101
:1056D000C9010396A11DB11D8093B90460912B01EE
:1056E000645E2FE042E00E940B0F60912B01625E2E
:1056F00022E04DE380E00E948C0E409134015091F5
:10570000350190912B012091B904935E473381E0DC
:10571000580708F091C12B5F20934E0790934F07D5
:10572000CA010E94FE198AEB96E00E941410809133
:105730002B01882381F09FEF980F90932B0192E328
:1057400090934E078C5080934F076EE072E083ED8C
:1057500096E00E940B1B8091B804882379F1809118
:10576000B704873008F06AC18F5F8093B7049091C7
:10577000B6049F5F9093B6048730B1F410922A016B
:105780008091DA04882351F08091D904811106C0F8
:1057900064E371E083E390E00E94FD1B8091DA04F2
:1057A00091E089278093DA040E9455096093B2043E
:1057B0007093B3048093B4049093B50410912B01BB
:1057C00063E0F62EF10E0EE0010F22E043E06F2DB4
:1057D0008BE40E94560E21E043E06F2D86E50E9487
:1057E000560E24E043E0602F8BE40E94560E28E022
:1057F00043E0602F86E50E94560E74E0F72EF10E0E
:1058000000E02AE0412F6CE487ED96E00E94A90DAC
:1058100041E1410F2AE06CE487ED96E00E94A90D7A
:105820004AE06F2D88E40E94A80E4AE06F2D89E5BA
:105830000E94A80E80912B01825F9BE490934E07FB
:1058400080934F078091DA0462E372E0882341F08D
:105850008091D90468E273E0882311F06EE272E06F
:1058600083ED96E00E940B1B1091B704173019F4DA
:1058700082E00E9429078091B60421E0280F220FC0
:1058800041E0410F440F60912B01681B685F00915C
:105890002A0180E5811B0E94420F8091B704873066
:1058A00019F481E00E9429078091DA04882309F421
:1058B0002CC1E090B004F090B1040E945509009111
:1058C000AC041091AD042091AE043091AF042B01D3
:1058D0003C01401A510A620A730A9701A4EDBEEF17
:1058E0000E943D382FEF37E040E050E00E947D35C8
:1058F0002E533E4F4F4F5F4F4427552724153505F4
:105900004605570508F045C00EE914E029E030E0EF
:10591000D7010E9445382FEF37E040E050E00E9469
:105920007D3569017A01B3E0CB0ED11CE11CF11C7D
:10593000DD24EE24FF2426013701E1E04E1A510850
:105940006108710881E090E0A0E0B0E0F2E0CF16DD
:10595000D104E104F1045CF00E940F35A30192012F
:105960000E947D35DC01CB010196A11DB11DF8011E
:1059700081938F014CEA54E04E175F0719F70E949C
:1059800055096093AC047093AD048093AE0490937A
:10599000AF040EE914E05AE4D52ED8018D918D01A3
:1059A00090912B0140E2F42EF90EEF2CE81AEF143F
:1059B00008F4E3C7811160C0712CCF2CFD2CED2CB5
:1059C00061C085EE91E0B6CD1092DA04E8CD8AE0B0
:1059D00080934E072CCE232B09F44BCE019745CE56
:1059E00082EC90E00E9414108CE080934E07185FC8
:1059F00010934F0764E172E083ED96E00E940B1B69
:105A000080912B018F5E97E190934E0780934F0713
:105A10006CE172E083ED96E00E940B1B82E00E9435
:105A2000290722E14DE360912B0180E00E948C0E5A
:105A300081E00E94290723CE25516ECE0E94550990
:105A40000091B2041091B3042091B4043091B504D4
:105A5000601B710B820B930B6D32714081059105B8
:105A600008F4ACCE1092B7041092B60481E0809393
:105A70002A011092B804A2CE77247394CD2C8E2DD7
:105A8000EF2CF82EBFEFFB1202C03EEFF32EFE14F8
:105A900090F5D394E8E5DE1280CF10912B01809130
:105AA0009D048823E9F18AEB96E00E9414100FE52B
:105AB00000934E07135F10934F0766E372E083ED88
:105AC00096E00E940B1B80912B01835E00934E0792
:105AD00080934F076EE372E083ED96E00E940B1B0C
