:020000040000FA
:100000000C947A060C94A2060C94A2060C94A206F8
:100010000C94A2060C94A2060C94A2060C94A206C0
:100020000C94A2060C94A2060C94A2060C94A206B0
:100030000C94A2060C94A2060C94A2060C94A206A0
:100040000C944E260C94A2060C941C260C94F625B7
:100050000C94A2060C94B7270C94A2060C94A2064A
:100060000C9498260C94A20600000000240027009F
:100070002A0000000000250028002B0000000000DE
:1000800023002600290004040404040404040202DA
:100090000202020203030303030301020408102007
:1000A0004080010204081020010204081020000012
:1000B0000008000201000003040700000000000027
:1000C00000005D0003020303010405070800FF07A9
:1000D000FF0700012E025B0371200540A4002107E9
:1000E000799418A20022075BA6482C01230E7DB448
:1000F0002925C9A05406A5942400240B7DB4CA0662
:100100007110072D02250A7FC44EB2B45B1203267C
:100110000C7EBCD1A2362D4AB46809270559961821
:1001200028087BA44A4AB50229097BA4C84A95122B
:10013000002A0CEFC4C92AD130444956012B0AEDDC
:10014000B40AA3410A23002C07DA9B4914002D05A9
:10015000CEBD382E055194102F077FC44EFB0C30B6
:10016000097DB459326FC90231097DB4CAC44E83C6
:1001700000320A7DB459B2306B1B04330C7DB418C5
:10018000D23019C2705000340C7DB4CBA4A4940CAE
:100190005A9800350A7DB4B8AEA1962C00360C7D75
:1001A000B459327148322D590037097DB418C4ACA6
:1001B000D804380C7DB459322D59322D5900390CE0
:1001C0007DB459322D19422D59003A06E194880226
:1001D0003B07F29B4913053C077CAC8B1A1B3D0780
:1001E0005DB518D4413E087CAC089BDA003F0B7D1E
:1001F000B459B230AB431100400F7FC4199454522C
:10020000948A32ECC0A000410B7DB459326D183293
:100210005B00420D7DB418924C1B944C1B140043A0
:10022000097DB419C4AE4300440A7DB41892CCDBF6
:10023000A000450B7DB438864312868300460A7DB4
:10024000B4388643121601470C7DB4593231193245
:100250002D5900480A7DB4C86CC390D9024906796B
:100260009438044A097DB4ECA8250B004B0C7DB4EE
:10027000C8A4A4A42551250B4C087DB4087B1C04FC
:100280004D0B7FC448B7A52245AA354E0C7EBC084D
:10029000372592126D14034F097DB459326FC9028C
:1002A000500B7DB418924C1B94B008510B7DB4597F
:1002B0003297448A9400520C7DB418924C1B94528D
:1002C000250B530A7DB4593275D5920554097DB476
:1002D00018A4B0270055097DB4C87C4B16005609F8
:1002E0007DB4C8BC25B508570B7FC4489D22A5B274
:1002F000AD01580B7DB4C8B4A456A96901590A7D53
:10030000B4C86C492D2C015A097DB418C4ACE32043
:100310005B087BA418A24E035C0E7FC4C8811CC876
:10032000811CC8811C085D087BA4983A0D015F06FA
:100330004FC43804610A6DB45993414B8600620B77
:1003400075B408C321C9B4410163086CAC19B2E2A9
:1003500000640A75B4AC0C9A960C01650A6DB45928
:10036000B241498700660A74AC52A221C94A0067AB
:100370000BF5B359322D19C26401680A75B408C36C
:1003800021C96C01690771944886006A08FBA34A79
:10039000A3D2026B0974ACC84A43D2146C06729C97
:1003A000507A6D0B6FC4B84491144991546E086D26
:1003B000B41892CC2D6F096DB459325BB200700B3A
:1003C000F5B318924C1B943004710AF5B319342D0F
:1003D00019C20272096DB418924C2C0273086DB4E4
:1003E00019D48302740A75B48A0629AC26007508EC
:1003F0006DB4C8DC922176096DB4C86C492D0277C2
:100400000C6FC48822299222A9320C78096DB4C8D5
:10041000925AA516790BF5B3C86CC910260B007A51
:10042000086DB418B4B6417B0A7CAC52B228CC42F9
:10043000017C06799438047D0A7CAC10B330CA1272
:10044000097E07D6BD912C0000000004FFFF0000CC
:10045000100003020505010406141600FC12FA122E
:10046000FA00000000024D20050044142A1EAD6D64
:10047000B7F35299929E14C7A46DD0861D1CB64145
:100480004B1A15A7A4A7A532AF002C10272534833B
:10049000925A132DAA4559126A002E0BA744348391
:1004A000925A9341012F2854C6FA844127A4391A3D
:1004B000E7609CA375B48ED6D13A5A47EB681DAD60
:1004C000A375B48EC63918E7689D30E804303054FF
:1004D000C69AC3B38E6A39A94E4A7260C801398C74
:1004E000D53855E3548D53354ED53855E3540E6306
:1004F0001D187220C9497552A6A3F2F00831204890
:10050000C674431626A99CA4499AA4499AA4499A58
:10051000A4499AA4499AA4499AA4D1A0003230547B
:10052000C65AC3C79C12E5B424A725F12027691831
:10053000478318E7609C83710EC63918E7609C8377
:10054000718EC9C329A7E9449D980CBF0033365466
:10055000C67AC3839A13B29C94E4B4241ED6248D25
:10056000C368D08630C772200773200773240787BB
:10057000341A742055E3541E669D98E4A42C27A4D5
:10058000C3830634325346FAD830E4600EE4508E0A
:10059000E4480EE5408EC569AB1AA6499AA5511AE2
:1005A000A5599AC483BAD3749A4E4B8683AA836999
:1005B0008ED6E14102353053463AC30725A7E934C8
:1005C0009D260F0725CDD178B8E51425A725C36B47
:1005D0000E87391C0E430E84EA30A43A2DC94975A2
:1005E00042383C4800363054C67AC3C79C12E5A452
:1005F00024A725F1F092E6703C1CB29C54A725F18B
:1006000030AB71AAC6A91AA7F230EBC4242765390A
:10061000211D1E3400372C54C63AC32F395127EA06
:10062000C46478CEC13807E31C8C7330CED13A5AFB
:1006300087D31CADC3698ED6E13487D39C30E810D4
:1006400000383154C67AC3839A13B29C5427558715
:10065000350AE3302B6769366C718ED609593AAC8E
:10066000491AA76A9CCAC3AC13939C94E584747816
:10067000D000392E54C67AC3839A13B29C94E444B2
:100680007998D53855E3548D537998756292D3A2F1
:10069000E13587D3E1AB4E4B725A9413C4E1410468
:1006A0003A12C7453483925A9341E73428A9351941
:1006B000140000000004FFFF0000410003020404D6
:1006C0000204050C0C00FF09FD0AFE0000000000FA
:1006D000DF200500A2052B0B77E65D5C1B862CAEA8
:1006E000012D0616F2C5012E062263C510300B96A9
:1006F000E2CD90847E4C8604310995A2C5D84F8303
:1007000000320B96E2CD9084625F8701330E96E251
:10071000CD908469694EC5644800340F96E29D9679
:10072000445DB2244B86314D00350E96E2C5214D15
:1007300007394DC5644800360F96E2CD90846AB201
:1007400068A231191200370B96E2C5310DD3625AF7
:1007500003380F96E2CD9084C66448426332240089
:10076000390F96E2CD9084C664505331191200447B
:100770000D9722C6208549EA633248004908932232
:10078000C512F565500C96E2C5A0848EC392560141
:10079000530F96E2CD90846A3CC4A9980C09005688
:1007A0000F9722466A4DB228AB84491A67000000B1
:1007B0000004FFFF210317B95F4F0E24D1540B73C0
:1007C0002047722447722847B274014EAE1CCC5E9B
:1007D000773ABCA5E930E494E1A0E450120D5298B8
:1007E000E540168751220F4F111DCC5E5F1DC8E2F8
:1007F000304E8621122BD99AAD51528C926212D56D
:10080000B45218024F4E1BCC5E5F2A26431A55A3E2
:10081000A2544BA261885AA36AD44B5334491D5049
:100820005C1DCC5E5F1D08D36418A41C9386A514C0
:1008300066C93048491C45C39676DB00507F1FCC03
:100840005E5F12D5A2A4965686415162251AB61C47
:100850004C86410AE3AC6518A46A00517319CB5E5B
:10086000575ACB81241DCE39960E073587921CC866
:10087000D2920E0851B71CCC5E779AAA59144661E1
:100880002865529826C310E940560A43B58E660083
:1008900051C622CC5E4798A4591426C930644994A5
:1008A00026521A0D8B1685D9306551984561360C44
:1008B000690C52A024CC5E5F0EE6C8302443162596
:1008C000511625511625511625512D896A49544B2B
:1008D000A2244C064D2A538B1BCC5ED7708872B075
:1008E0001CC6619C0C4316C6611296AA51358C86B3
:1008F0000354111ACA5F678EC4C3414774441A2255
:10090000A92495A421D21139D18104542619BB5EA2
:10091000C783A823AD5149CBD4301A86300DD3708C
:1009200018C2340257FA19CB5E5F6D3868E541CEC4
:10093000E241CEB2E120352983A2A6C3415C4F1D1E
:10094000CC5ED770CB816CB82561A93A1CA2D6A821
:100950003A1C922C0AA3AC1466005E551CCB5E5F59
:100960006D3868D56108D37018C2248B8683D4345F
:100970001CA4C62891005EA61ECC5E3F100F87A85F
:10098000160E87A81646839883C9306451564CC208
:10099000708BB6015F001CCC5ECF7048B31CC87270
:1009A00020CB812C1B1EB31CC8E2300ED3629C01ED
:1009B000624B18CB5EF7100D3A9663F170CEB174AE
:1009C00038A839962375280662A521CC5E57346C69
:1009D00051984561324C629423D1B029A5644AA252
:1009E0002C4A8A512D89925A6663A51FCC5E575AAC
:1009F0001A8628AB0C521246C310A5A9321CC22875
:100A00002B85A1968449961965B917CC5E6F8EA681
:100A1000C3630EE6E0308769C7380B932C0E01657F
:100A2000CB22CC5E57980359383C6539B00C5392B1
:100A30004595D6A4322451528C9262A46851120D6D
:100A40000165F61CCC5E3F140D69548DA2E110A522
:100A5000D1906451FF351AD2A896E45806662F1B30
:100A6000CC5EDF3087F13087F1B05386E71C898692
:100A700034CA81A4AA0D4300672A18CB5E6F8EC5C5
:100A8000C339C7D2E1A0E6D00E24D5A8A4656A0A6E
:100A9000673A21CC5E570E66439845D1A044611653
:100AA00065534D29559A2A5914465912D592280949
:100AB0000767C41ECC5E570E46C310A5D9F0D449B3
:100AC000892A968A12251525D2A46A548D8A02682D
:100AD000211BCC5E5718A7A5E1250AB39A92264A96
:100AE000A9D25409D5C6248C34016E2921CC5E4F7D
:100AF00036885196038354C92AC92046599883C918
:100B0000302452D25469AA3425C3016E9025CC5E9C
:100B10004F340C5292E5401466C92055B24A3268EF
:100B200049AD920C8A948549949492524589A400C7
:100B300070D922CC5E579603D9A025B524519A923C
:100B4000344BC2244C36291BB4A624CAA2CAA0A482
:100B5000590270ED21CC5E579603593A248398458B
:100B6000A122455B1446498B12453A9C44B5A82501
:100B70008B2A00753519CB5F678EC5C3292B65A5F8
:100B8000E19495B2D27009D3304D8701772026CCFD
:100B90005EEFB00C499844499844C9B00C4994455B
:100BA000499445C97050A22C4AA22C4AB2645034D0
:100BB000B5007AEF20CC5E4F9C46A54189AAC320A0
:100BC000E550920C43528BA361882A4D4352D9922F
:100BD000D6507F6E1BCC5ECF70883A0D87381E1EB4
:100BE000736818C4381CA4301BC2381A1E886517D5
:100BF000CC5E4F9CD6062D0ED3544CB2241A23A59E
:100C00001655FB0D8B661DCC5ECFB0A4513424C3AA
:100C1000D2A730E9341C74CA30E4B46148ABC310C5
:100C2000018F6C1DCC5E57DA36288316A6499626AE
:100C3000C9F09223D1208EC9902569A896008FC74C
:100C40001FCC5E4F0E8471980C830EE540166D51DB
:100C50009845611C56C2344C72241B060190062034
:100C6000CC5E4F56CC923419061DC891A8B244B53B
:100C70006418B224AA85711627E56C180491CD1A60
:100C8000CB5E3FA00D3B940E07A97118C2A8380C8B
:100C900039100FE774380894C11CCC5E4F1C56C243
:100CA00021A9A583324C69D3F096864998444928F6
:100CB00065A53495F421CB5E4F340C510EE8903489
:100CC0004852164959240D92944552164983A4035B
:100CD000898E2400987A1BCC5E4F960C4A5BA51433
:100CE000269541E996F4FFFFFF14464931C90200F9
:100CF0000000ED2711241FBECFEFD8E0DEBFCDBF2F
:100D000013E0A0E0B1E0ECE2F4E702C005900D9240
:100D1000A836B107D9F727E0A8E6B3E001C01D92D5
:100D2000AD38B207E1F716E0CAE7D6E004C0219774
:100D3000FE010E94B738C937D107C9F70E94EC28D5
:100D40000C94143A0C940000662329F06A3019F0D0
:100D5000862F90E008958FEF9FEF0895CF92DF9256
:100D6000EF92FF920F931F93CF93DF93EC01842FA9
:100D70008770E1E0F0E0082E01C0EE0F0A94EAF778
:100D80003E2F7E0193E7E90EF11CD7019C9110E004
:100D9000923018F41E2F913029F150E0487FE8ADD1
:100DA000F9ADC880D980D60150969C91949F60017E
:100DB000959FD00C11246C0D7D2D711DDF01A60FA8
:100DC000B71F011115C08C91812B83278D93215062
:100DD000D1F7DF91CF911F910F91FF90EF90DF90AE
:100DE000CF90089530E0D9CF110F330F222389F32C
:100DF0009C91912B93279C938F5F87702150811139
:100E0000F3CF9CADA90FB11DF7019081923028F46A
:100E1000913009F031E011E0E9CF31E0E7CF80E037
:100E2000089580E00895CF93DF93CCE0D7E09BAFA7
:100E30008AAFDC01ED91FC9180E197E00995EAAD84
:100E4000FBAD0280F381E02D80E197E0DF91CF914F
:100E500009948093830708959B01DC011896ED9116
:100E6000FC9141E067E10994FC01538D448D252FED
:100E700030E0842F90E0821B930B541710F0CF9634
:100E8000089501970895FC01918D828D981761F066
:100E9000A28DAE0FBF2FB11D5D968C91928D9F5F7D
:100EA0009F73928F90E008958FEF9FEF0895FC015C
:100EB000918D828D981731F0828DE80FF11D858D0F
:100EC00090E008958FEF9FEF0895FC01918D228DA2
:100ED000892F90E0805C9F4F821B91098F73992727
:100EE0000895FC01A48DA80FB92FB11DA35ABF4FBF
:100EF0002C91848D90E001968F739927848FA68919
:100F0000B7892C93A089B1898C91837080648C936C
:100F1000938D848D981306C00288F389E02D80811B
:100F20008F7D80830895EF92FF920F931F93CF934D
:100F3000DF93EC0181E0888F9B8D8C8D98131AC014
:100F4000E889F989808185FF15C09FB7F894EE89FB
:100F5000FF896083E889F989808183708064808358
:100F60009FBF81E090E0DF91CF911F910F91FF90A3
:100F7000EF900895F62E0B8D10E00F5F1F4F0F734B
:100F80001127E02E8C8D8E110CC00FB607FCFACF06
:100F9000E889F989808185FFF5CFCE010E9471072C
:100FA000F1CFEB8DEC0FFD2FF11DE35AFF4FF082D7
:100FB0009FB7F8940B8FEA89FB8980818062CFCF3D
:100FC000CF93DF93EC01888D8823B9F0AA89BB8980
:100FD000E889F9898C9185FD03C0808186FD0DC06B
:100FE0000FB607FCF7CF8C9185FFF2CF808185FF8C
:100FF000EDCFCE010E947107E9CFDF91CF91089527
:1010000086EE94E00E94650721E0892B09F420E038
:10101000822F089580E090E0892B29F00E9400083B
:1010200081110C9400000895AF92BF92CF92DF928D
:10103000EF92FF920F931F93CF93DF936C017B018D
:101040008B01040F151FEB015E01AE18BF08C0171E
:10105000D10759F06991D601ED91FC910190F08191
:10106000E02DC6010995892B79F7C501DF91CF9154
:101070001F910F91FF90EF90DF90CF90BF90AF90B6
:101080000895833081F028F4813099F08230A9F0FE
:1010900008958730A9F08830C9F08430B1F4809188
:1010A00080008F7D03C0809180008F7780938000C7
:1010B000089584B58F7784BD089584B58F7DFBCF67
:1010C0008091B0008F778093B00008958091B00038
:1010D0008F7DF9CFCF93DF93282F30E0F901E255D0
:1010E000FF4F8491F901E656FF4FD491F901EA5779
:1010F000FF4FC491CC23A1F081110E944108EC2F35
:10110000F0E0EE0FFF1FE458FF4FA591B491EC9172
:10111000ED2381E090E009F480E0DF91CF91089524
:1011200080E090E0FACF1F93CF93DF93282F30E039
:10113000F901E255FF4F8491F901E656FF4FD49132
:10114000F901EA57FF4FC491CC23A9F0162F811162
:101150000E944108EC2FF0E0EE0FFF1FEE58FF4F0A
:10116000A591B4918FB7F894EC91111108C0D09566
:10117000DE23DC938FBFDF91CF911F910895DE2B8B
:10118000F8CFCF93DF9390E0FC01E656FF4F249118
:101190008A579F4FFC0184918823C9F090E0880F03
:1011A000991FFC01E859FF4FA591B491FC01EE583D
:1011B000FF4FC591D49161110DC09FB7F8948C91E8
:1011C000209582238C938881282328839FBFDF91D9
:1011D000CF910895623051F49FB7F8943C91822FDB
:1011E000809583238C93E8812E2BEFCF8FB7F894D3
:1011F000EC912E2B2C938FBFEACF3FB7F8948091C0
:10120000650490916604A0916704B091680426B5C6
:10121000A89B05C02F3F19F00196A11DB11D3FBF2E
:10122000BA2FA92F982F8827BC01CD01620F711DFD
:10123000811D911D42E0660F771F881F991F4A95F7
:10124000D1F708958F929F92AF92BF92CF92DF9283
:10125000EF92FF926B017C010E94FD084B015C0143
:10126000C114D104E104F104B9F00E94FD08681929
:1012700079098A099B09683E73408105910580F3CD
:1012800021E0C21AD108E108F10888EE880E83E057
:10129000981EA11CB11CE4CFFF90EF90DF90CF907F
:1012A000BF90AF909F908F9008952FB7F894609162
:1012B00061047091620480916304909164042FBF73
:1012C0000895CF92DF92EF92FF920F931F93CF93E7
:1012D000DF93EC0188810E946A082A812817190689
:1012E00049F510E08B81882309F479C00E945509E3
:1012F000CD80DE80EF80F8846C197D098E099F090E
:10130000CB88DC88ED88FE88C616D706E806F90685
:1013100008F065C01B8281E08C8313E0EF89F88DB3
:10132000309709F45EC029853A854D85612F888103
:10133000099557C00E9455096B017C010E9455090F
:101340006C197D098E099F090F85188929893A89A9
:10135000601771078207930738F461E070E080E05E
:1013600090E00E942209EACF88810E946A082A81BF
:101370002817190609F4B5CF11E021272A8389819E
:10138000813059F18E8590E02817190681F40E946A
:101390005509CD80DE80EF80F8846C197D098E09B7
:1013A0009F0969877A878B879C871B839ACF0E94C6
:1013B00055096D837E838F83988719861A861B86CD
:1013C0001C868C81882329F01D871C821B8212E0D9
:1013D00089CF8D858F5F8D87F9CF11E083CF111174
:1013E0009DCF812FDF91CF911F910F91FF90EF90B3
:1013F000DF90CF90089520911404260F3327331FD8
:1014000021323105ECF420913A04FC0190E080E0B7
:10141000243069F082E00895A09114042191AC0178
:101420004E505C4FA40FB52FB11D2C93019686171B
:1014300098F380911404680F6093140480E0089579
:1014400081E0089510923A0481E080933C04109268
:101450003B0461E082E10E94930861E083E10E9425
:101460009308E9EBF0E080818E7F808380818D7F1F
:10147000808388E48093B80085E48093BC0008955D
:10148000CF93DF9391E09093F1038823B9F0C0915B
:10149000B800D091BA008091BC008A7B8093BC00D8
:1014A00060E082E10E94930860E083E10E9493087B
:1014B0000E94220AD093BA00C093B800DF91CF9166
:1014C0000895089508950895E091E9038091E8034F
:1014D000E81730F4F0E0E853FC4F808190E0089585
:1014E0008FEF9FEF08959091E9038091E8032FEF2C
:1014F0003FEF981748F4E92FF0E0E853FC4F2081C4
:1015000030E09F5F9093E903C90108958091E8035B
:101510009091E903891B990B0895CF92DF92EF9286
:10152000FF920F931F93CF93DF937C01CB018A012E
:101530002091C703222389F0EB016B01C40ED51E55
:10154000CC15DD0569F06991D701ED91FC91019011
:10155000F081E02DC7010995F3CF642F0E94FB09AC
:10156000C801DF91CF911F910F91FF90EF90DF9015
:10157000CF900895CF93DF931F92CDB7DEB76983E5
:101580002091C7032223F9F02091EA03203258F07A
:1015900021E030E0FC013383228390E080E00F9073
:1015A000DF91CF9108958091EB03E82FF0E0E955AA
:1015B000FC4F998190838F5F8093EB038093EA03C4
:1015C00081E090E0ECCF61E0CE0101960E94FB0942
:1015D000F7CFDC011A96ED91FC9130E020E0099400
:1015E000DC011696ED91FC9130E020E040E069E1ED
:1015F0000994DC011696ED91FC9130E020E040E08A
:1016000068E109949A01DC011696ED91FC91462F50
:1016100067E10994EF92FF920F931F93CF93DF93AB
:101620001F92CDB7DEB77C018B01D8016C91673179
:1016300029F150F46531A0F40F90DF91CF911F9103
:101640000F91FF90EF9008956A3118F16E3FA1F766
:10165000F8014181498369E2C7010E94E90A0BC090
:10166000F80141814983D7011696ED91FC9130E054
:1016700020E0C70109950E5F1F4FD7CFF801818188
:101680008983AE014F5F5F4F61E0C7010E94020B8B
:10169000F2CF0F5F1F4FD7011696ED91FC9130E00E
:1016A00020E040E0C7010995C0CF462FDC01169627
:1016B000ED91FC9130E020E066E10994462FDC01D9
:1016C0001696ED91FC9130E020E065E10994EF92EF
:1016D000FF920F931F93CF93DF93EC01042F7901B7
:1016E000693069F487E991E0998388831C8A81E0F5
:1016F000DF91CF911F910F91FF90EF9008956D3082
:1017000009F475C038F46A3091F16B3009F468C09F
:1017100080E0EECF6E3009F47DC06F30C9F70E94D3
:10172000F90AF7011381110F110F110F6C89160FB0
:10173000612F62956F706061CE010E945E0B612F18
:101740006F70CE010E945E0BF7016481606BCE0169
:101750000E945E0BF701408151816281660F660F26
:10176000660FCE010E94020B0150A1F75DC0EA8511
:10177000FB8530E020E040E068E20995EE81FF81E2
:1017800030E020E040E064E1CE01099541E06BE407
:10179000CE010E94E90AE881F981448169E2CE0123
:1017A0000E94E90A40E06BE4CE010E94E90AE88168
:1017B000F981448169E2CE010E94E90A41E06BE4CB
:1017C000CE010E94E90AE881F981458169E2CE01F2
:1017D0000E94E90A62E671E0CE010E940A0B87CFFF
:1017E0006DE571E04423C1F368E571E0F5CF411187
:1017F00009C061E571E00E940A0BE881F9818289E4
:101800008C8B75CF6AE471E00E940A0BE881F98144
:101810008389F6CF0E94F90A61E8CE010E945E0B2F
:10182000602FCE010E94550BCE010E94F00A5FCFBF
:10183000DC011896ED91FC9130E020E040E069E198
:101840000994DC011896ED91FC9130E020E040E035
:1018500068E10994CF93DF931F92CDB7DEB7698318
:10186000BE016F5F7F4F0E942C070F90DF91CF91D9
:101870000895EF92FF921F93CF93DF93EC01162F01
:101880007A010E94210C60E4CE010E942A0CE885B6
:10189000F9859701412F67E1CE010995CE01DF91CE
:1018A000CF911F91FF90EF900C94180CEF92FF9244
:1018B0001F93CF93DF93EC01142F7901663181F1EF
:1018C00038F4643109F44BC0653179F080E022C00E
:1018D0006831C9F150F16931C9F78091A6038823B5
:1018E00091F1CE010E94180C2EC08091A60388238E
:1018F00019F0CE010E94180CCE010E94210C60E06C
:10190000CE010E942A0C612FCE010E942A0C81E098
:101910008093A603DF91CF911F91FF90EF900895E0
:10192000642F0E942A0C81E0F5CF8091A6038823C2
:1019300019F0CE010E94180CA701193138F4612F5B
:10194000CE010E94390C1092A603EDCF68E1CE01C2
:101950000E94390C185188E1E80EF11CEDCF8E89F8
:101960008F3F11F488E78E8BE885F9859701412F29
:1019700064E1CE01DF91CF911F91FF90EF90099428
:10198000FC016623D9F16A30C9F1808D811125C02F
:101990006C3F48F085E0808F617070E0738B628BE4
:1019A0002EEF3FEF29C0683F20F084E0808F637006
:1019B000F4CF603F20F083E0808F6770EECF603E11
:1019C00020F082E0808F6F70E8CF262F30E0603CFF
:1019D00098F081E0808F6F71E0CF8150808F2289F5
:1019E000338996E0220F331F9A95E1F76F73262B08
:1019F000338B228B8111D4CFC90108952FEF3FEF94
:101A0000FBCF0F93DC01FC01EE5BFF4F9081941B39
:101A1000492F31979081961B692F01110EC04150BB
:101A2000621BDE968C91DE97481BD496ED91FC915B
:101A3000D597CD0109950F910895013091F7615027
:101A4000421BEFCF0F93DC01DE963C91DE97431BE8
:101A5000D496ED91FC9109950F910895FC01ED5BF1
:101A6000FF4F10823196DC01AF5BBF4F2C9120837A
:101A70003196108211962C9112973C91231718F0F1
:101A8000422F431B4083FC01EA5BFF4FDC01DF96E2
:101A90008C91281B20830895FC01ED5BFF4F108281
:101AA0003196DC01AF5BBF4F2C9120833196DC0176
:101AB000DF962C9120833196805C9F4FDC018C91C6
:101AC00080830895CF93DF93FC01A081B18182AD23
:101AD000982F990F990F990F95AF50969C91509709
:101AE000903208F09FE1990F990F990F94AF23ADB1
:101AF000922F990F990F990F96AF51963C9151974C
:101B0000682F620F7727771F3617170614F4832F75
:101B1000821B97AFEF01C05CDF4F880F880F880FE3
:101B2000890F8883219680EF888354968D919C91AC
:101B30005597813F910508F48883EE5BFF4F5696D9
:101B40008C918083DF91CF9108950C94620D0C9459
:101B5000620D0F93DC01222371F1FC0101112DC0F4
:101B6000EB5BFF4F8081481730F131968081481739
:101B700010F53297908131978081260F2617C8F48F
:101B80006917B0F42FEF290F8217A8F4681708F42B
:101B9000682F291708F4922F961BD696ED91FC9189
:101BA000D7970480F581E02D292FCD01099503C039
:101BB000682F691748F30F910895ED5BFF4F8081FF
:101BC0006817C8F3319680816817A8F7329690811C
:101BD00031978081240F241778F4491760F42FEF90
:101BE000290F821740F7481708F4482F291708F4DF
:101BF000922F941BD2CF482F4917E8F6F2CF0F93BC
:101C0000462F00E021E0682F80E197E00E94A90DB7
:101C10000F910895FF920F931F93CF93DF93F82EA8
:101C2000D62F142FC22F00FF0CC0622F6D1B842FE4
:101C30008F0D0E94FF0D6C2F6F198D2F810F0E9449
:101C4000FF0D01FF0CC06C2F6D1B812F8F190E949F
:101C5000FF0D6C2F6F19812F8D1B0E94FF0D03FF4D
:101C60000CC06C2F6D0F812F8F0D0E94FF0D6C2FFC
:101C70006F0D8D2F810F0E94FF0D02FF11C06C2F81
:101C80006D0F812F8F190E94FF0D6C2F6F0D812F0B
:101C90008D1BDF91CF911F910F91FF900C94FF0D41
:101CA000DF91CF911F910F91FF900895CF92DF9216
:101CB000EF92FF920F931F93CF93DF93E82ED62ED0
:101CC000C42FC22ED1E0D41BF42EF194FF0C022FAE
:101CD000262F482F6C2F80E00E940A0E10E0D7FDBF
:101CE00004C0C150F394F394DF0D1F5F812F880F60
:101CF0008F5FD80F0C2D2D2D4E2D6C2F812F0E9414
:101D00000A0E1C1760F3DF91CF911F910F91FF9086
:101D1000EF90DF90CF900895FF920F931F93CF9392
:101D2000DF93182FC62FF42ED62FD20FCD1306C057
:101D3000DF91CF911F910F91FF90089500E02F2D1B
:101D40004C2F612F80E197E00E94A90DCF5FEECF6D
:101D50000F93242F01E0462F682F80E197E00E9427
:101D6000A90D0F910895FF920F931F93CF93DF93C7
:101D7000C82FD62F142FF22E00FF10C041E0460FBF
:101D8000622F6D1B812F8C0F0E94A80E41E04C0F1B
:101D90006F2D6C1B8D2F810F0E94A80E01FF10C0AC
:101DA00041E04D0F6F2D6D1B812F8C1B0E94A80EE3
:101DB00041E04C0F6F2D6C1B812F8D1B0E94A80ED4
:101DC00003FF0EC041E04D0F6F2D812F8C0F0E943D
:101DD000A80E41E04C0F6F2D8D2F810F0E94A80E91
:101DE00002FF13C041E04D0F6F2D812F8C1B0E940D
:101DF000A80E41E04C0F6F2D812F8D1BDF91CF91ED
:101E00001F910F91FF900C94A80EDF91CF911F911D
:101E10000F91FF900895CF92DF92EF92FF920F9370
:101E20001F93CF93DF93E82ED62EC42FC22ED1E07E
:101E3000D41BF42EF194FF0C022F262F482F6C2F69
:101E400080E00E94B30E10E01C1748F0DF91CF91A4
:101E50001F910F91FF90EF90DF90CF900895D7FDE5
:101E600004C0C150F394F394DF0D1F5F812F880FDE
:101E70008F5FD80F0C2D2D2D4E2D6C2F812F0E9492
:101E8000B30EE2CFAF92BF92CF92DF92EF92FF926A
:101E90000F931F93CF93DF93E82EB62ED42EC22F2D
:101EA000F82EF00EC02EC60E1FEF140F180F101BC9
:101EB000DFEFD20FD60FD01B22E0402F6C2D8F2DDD
:101EC0000E940B0F21E0402F6C2D812F0E940B0FE1
:101ED00024E0402F6D2F8F2D0E940B0F28E0402F04
:101EE0006D2F812F0E940B0F1D2D101B101B133007
:101EF00088F0F3941250AA24A394A00E2A2D412F07
:101F00006B2D8F2D0E948C0E2A2D412F6D2F8F2D22
:101F10000E948C0E2C2F201B201B233088F0225077
:101F200061E06C0D4D2D8E2DDF91CF911F910F91A2
:101F3000FF90EF90DF90CF90BF90AF900C948C0EFD
:101F4000DF91CF911F910F91FF90EF90DF90CF9095
:101F5000BF90AF900895FF920F931F93CF93DF939D
:101F6000D82F162FF42EC22F00E0242F462F682FD3
:101F700080E197E00E94A90D01E02C2F412F6D2FE9
:101F800080E197E00E94A90D6FEF6F0D6D0F2C2F70
:101F9000412F80E197E00E94A90D4FEF4C0F410FB8
:101FA00000E02F2D6D2F80E197E00E94A90DDF91B9
:101FB000CF911F910F91FF900895DC0118964C91DD
:101FC0001897ED91FC911197249130E0042E02C0F6
:101FD000359527950A94E2F7842F860F883068F0AC
:101FE00031961196FC93EE93E49198E0941B01C016
:101FF000EE0F9A95EAF72E2B885018968C938FEF58
:102000009FEF01C0880F6A95EAF7809582230895B3
:10201000FC01E60FF11D849190E0982F88273196FE
:10202000E4918E0F911D0895CF93DF932091570770
:10203000309158072817390709F490C0EC019093A4
:10204000580780935707FC01849180936707319666
:10205000E491E0936807FE013296E491E09369070A
:10206000FE013396E491E0936A07FE013496E49111
:10207000E0936B07FE013596E491E0936C07FE0157
:102080003696E491E0936D07FE013796E491E09374
:102090006E07FE013896E491E0936F07FE013996D2
:1020A000E491E0937007FE013A96E491E0937107A2
:1020B000FE013B96E491E0937207FE013C96E491A9
:1020C000E0937307FE013D96E491E0937407FE01EF
:1020D0003E96E491E0937507FE013F96E491E0930C
:1020E0007607FE017096E491E093770761E1CE01F7
:1020F0000E940810909379078093780763E1CE01DE
:102100000E94081090937B0780937A0765E1CE01C7
:102110000E94081090937D0780937C078091570759
:1021200090915807892BD1F08091740780937F0795
:10213000409175074093800790917E07992371F035
:10214000913079F490917607891714F490937F0772
:1021500080917707841714F480938007DF91CF91E3
:1021600008953091710720917307082E000C990B88
:10217000622F022E000C770B630F711D37FD7A95CD
:10218000861797071CF4320F30937F07241734F714
:1021900020938007E3CFCF93DF93EC016BAFEEA9E1
:1021A000FFA90190F081E02D0995EEA9FFA9028019
:1021B000F381E02DCE01DF91CF910994AF92BF92D0
:1021C000CF92DF92EF92FF920F931F93CF93DF9303
:1021D00000D000D01F92CDB7DEB78C01DC01DA96BB
:1021E000AC90DA97DB96EC90DB97ED91FC91B1889F
:1021F000FE2CD12CC12CD801ED91FC911197808936
:10220000D8962D913C911C82FD828B83B8E08B9FE8
:10221000C00111248C9DA0018D9D500D9C9D500DE1
:102220001124240F351F3A832983D8011496ED9188
:10223000FC919E012F5F3F4F41E06FE0C80109957F
:10224000F3948F2D8E198A1528F4BFEFCB1ADB0A71
:10225000FB1488F20F900F900F900F900F90DF916A
:10226000CF911F910F91FF90EF90DF90CF90BF9093
:10227000AF900895CF92DF92EF92FF920F931F934A
:10228000CF93DF93EC01962F683109F44BC0B9016D
:10229000993130F49431C9F0973189F080E006C06B
:1022A000993109F461C09032C9F781E0DF91CF9193
:1022B0001F910F91FF90EF90DF90CF90089550E025
:1022C00083E895E00E948D0AF0CF8C859D85AE85D0
:1022D000BF85892B8A2B8B2B71F4E881F981A58529
:1022E000B0E020EA36E841E050E00E941C366C87FE
:1022F0007D878E879F871092E9031092E8031092E2
:10230000EB031092EA030E94220A81E69AE090937E
:1023100013048093120482E69AE09093170480934A
:102320001604C3CF2C853D854E855F8560E074E241
:1023300084EF90E00E942F36205131094109510964
:1023400056954795379527952093B8008E8990E04C
:102350009595879591E09093C7038093A50310927C
:10236000EB031092EA03A1CFD091EA03D13208F037
:1023700093C0C091A5030E94FD086B017C01809170
:102380003A04811164C082E080933A0481E0809332
:102390003C048FEF8093390410925E04D0935D0467
:1023A000A7EAB3E0EDE3F4E080E0D8137CC010923C
:1023B0005F0480915F04CC0FC82BC0935F048091B1
:1023C0003B04813009F073C010923B040E94FD0869
:1023D0006B017C0180915F048093BB008091ED03D1
:1023E0009091EE03A091EF03B091F003892B8A2B1B
:1023F0008B2B99F00E94FD080091ED031091EE03E4
:102400002091EF033091F0036C197D098E099F092B
:102410000617170728073907D8F18091BC0083FDFC
:10242000D9CF85EC8093BC000E94FD086B017C0134
:1024300080913A048230E9F1809139048F3F61F153
:1024400080913904803241F18091390425C0809116
:10245000ED039091EE03A091EF03B091F003892B6F
:102460008A2B8B2B09F48BCF0E94FD080091ED0382
:102470001091EE032091EF033091F0036C197D0968
:102480008E099F09061717072807390708F077CF25
:102490008091EC030E94400A1092EB031092EA0331
:1024A0001092C70302CF9D9191938F5F7ECF85EEEF
:1024B000B9CF8091ED039091EE03A091EF03B0911D
:1024C000F003892B8A2B8B2B09F4B2CF0E94FD08D5
:1024D0000091ED031091EE032091EF033091F00392
:1024E0006C197D098E099F090617170728073907F8
:1024F00008F09ECFCDCF0F931F93CF93DF938C0126
:10250000C62F642FCC32E8F4CA3208F041C0C8327A
:1025100071F1C93209F442C080E0C034D0F1CF7308
:10252000F801EC0FF11D868D8F3F91F1C031E0F085
:102530000E946A0821E0892B09F420E0F801218F2C
:1025400027C0CD3289F140F384EB8C0F823020F725
:10255000CF73C00FD12FD11D8E8D411133C061E0DB
:102560000E94C10860E08E8D0E94930811C0025E37
:102570001F4FD0E0F80181918F018F3F31F061E072
:10258000D03108F062E00E94C108DF5FD63191F7D8
:1025900081E0DF91CF911F910F91089570E090E05D
:1025A00080E00E942209F4CF85E090E0433010F0F3
:1025B00082E090E0880F991F880F991F0597019777
:1025C000F1F7E6CF62E00E94C108E2CF8E5080644E
:1025D00080937C0080917A00806980937A0083B731
:1025E000817F826083BF20E190E080E033B731607B
:1025F00033BF889533B73E7F33BF30917A0036FDC5
:10260000FCCF4091780050917900840F951F2150A4
:1026100069F720917A002F7720937A0024E096952D
:1026200087952A95E1F70895809106019091070119
:102630006AE070E00E94A3382AE0269FC001279F2D
:10264000900D11244497833C21E09207BCF49093B1
:10265000BC048093BB0480910001909101016AE069
:1026600070E00E94A3382AE0269FC001279F900DAA
:1026700011249093BA048093B904089582EC91E0F8
:10268000E6CF4F925F926F927F928F929F92AF921E
:10269000BF92CF92DF92EF92FF920F931F93CF934F
:1026A000DF9300D000D000D0CDB7DEB76B017C0146
:1026B00080913201873009F064C180916A048130D1
:1026C00009F043C1A7019B0160E070E080E291E462
:1026D0000E9460360E944437709391036093900388
:1026E00080919003909191039E838D838B3F9F4FA8
:1026F0000CF069C186E990E0A0E0B0E080932E0183
:1027000090932F01A0933001B09331010091A20367
:102710001091A3038D819E810E962D813E818D9710
:1027200008F080C1B901330F880B990B0E947C37E8
:102730006B017C019F7720E030E0A9010E942C38DA
:1027400018160CF059C16D817E81601B710B072E2C
:10275000000C880B990B0E947C374B015C016D814A
:102760007E81600F711F072E000C880B990B0E9451
:102770007C3720E030E040E05FE30E94313869833D
:102780007A838B839C83C801880F991F6D817E811A
:10279000681B790B8091A0039091A103680F791FAA
:1027A000072E000C880B990B0E947C372B013C01F3
:1027B00020E030E0A901C701B6010E942C381816AC
:1027C00024F0F7FAF094F7F8F09420E030E04AEFC4
:1027D00054E4C701B6010E942C38C12CD12C7601DB
:1027E00087FF06C0C12CD12C80E8E82E8FE3F82E9D
:1027F0002DEC3CEC4CE45FE360911201709113010D
:1028000080911401909115010E943138A301920129
:102810000E9431382B013C012DEC3CEC4CE45EE392
:1028200060918C0370918D0380918E0390918F0342
:102830000E9431389B01AC01C301B2010E94613694
:102840002B013C0140928C0350928D0360928E03C9
:1028500070928F0320911601309117014091180159
:1028600050911901C701B6010E94313829813A817E
:102870004B815C810E9431386B017C0120911A01EF
:1028800030911B0140911C0150911D01C501B40103
:102890000E9431389B01AC01C701B6010E9461362C
:1028A000A30192010E9461366B017C016091AF042B
:1028B0007091B004072E000C880B990B0E947C3796
:1028C000A70196010E9461360E9444377093B004BC
:1028D0006093AF04072E000C880B990B0E947C3785
:1028E0006B017C0120E030EE4FEF54E40E942C3865
:1028F00087FD8DC08D819E81181619060CF480C04D
:102900001092B0041092AF041093A1030093A0039F
:102910002D813E813093A3032093A20326960FB608
:10292000F894DEBF0FBECDBFDF91CF911F910F9105
:10293000FF90EF90DF90CF90BF90AF909F908F90DF
:102940007F906F905F904F900895823039F4A70187
:102950009B0160E070E08FEA93E4BACE833039F4F3
:10296000A7019B0160E070E882E294E4B1CE84307C
:1029700009F0B6CEA7019B0160E070E08BE694E41D
:10298000A7CE20913401309135013A832983B901D2
:1029900090E080E00E947A37A70196010E9460369D
:1029A0000E94443770939103609390038091BF0419
:1029B0009091C00429813A81281B390B3093C204BD
:1029C0002093C1048DCE8D819E810596409728F479
:1029D00080E991E0A0E0B0E091CE8D819E810B97DF
:1029E000449728F484EF91E0A0E0B0E087CE80E245
:1029F00093E0A0E0B0E082CEC12CD12C760156CF7E
:102A00008FEF97E09093B0048093AF047DCF20E0E8
:102A100030E0A901C701B6010E94CD3618160CF4AA
:102A200073CF6ECF2F3131055CF7213F3F4F09F057
:102A300067CF6ACFCF93DF93EC0181E08093D3041B
:102A40000E9455096C0F7D1F7093D2046093D104CE
:102A5000DF91CF9108958F929F92AF92BF92CF92C4
:102A6000DF92EF92FF92CF93DF9384E10E94E61210
:102A7000BC0190E080E00E947A372DEC3BE34EE011
:102A80005EE30E94D2362091090130910A01409103
:102A90000B0150910C010E94313820E030EC4FE7DF
:102AA00054E40E94D23620919303309194034091D4
:102AB0009503509196030E9461366093930370933F
:102AC00094038093950390939603209192032F5F34
:102AD000209392032A3008F43FC020E030E040E227
:102AE00051E40E94D23620918504309186044091B1
:102AF0008704509188040E94613660939904709312
:102B00009A0480939B0490939C04109292031092D9
:102B10009303109294031092950310929603C09021
:102B20000D01D0900E01E0900F01F0901001A7016F
:102B300096010E94CD3687FF50C123E333E343E57E
:102B400050E4C701B6010E942C3887FD46C181E0E0
:102B50008093D0041092E10460E08AE00E94930820
:102B600081E10E94E612BC0190E080E00E947A3789
:102B70002091090130910A0140910B0150910C0103
:102B80000E94313820E030EC4FE754E40E94D23606
:102B900020E030E040E05FE30E94603620E030E07B
:102BA00048EC52E40E943138209198033091990307
:102BB00040919A0350919B030E9461366093980361
:102BC0007093990380939A0390939B0320919703AA
:102BD0002F5F209397032A30C0F020E030E040E2DE
:102BE00051E40E94D2366093C6047093C704809368
:102BF000C8049093C90410929703109298031092FE
:102C0000990310929A0310929B0380918A04813059
:102C100061F4E0911407F091150730E020E0409155
:102C200011016EE080E197E0099561E070E080E0DD
:102C300090E00E94220980E10E94E612C0906B049D
:102C4000D0906C04E0906D04F0906E04BC0190E0B4
:102C500080E00E947A37A70196010E94603623E344
:102C600033E343E35FE30E943138A70196010E94FA
:102C700061366B017C01C0926B04D0926C04E092CF
:102C80006D04F0926E0420917B0430917C0440919D
:102C90007D0450917E040E943138A70196010E9464
:102CA0003138A70196010E9431384B015C01209117
:102CB0007704309178044091790450917A04C701E7
:102CC000B6010E943138A70196010E9431389B015C
:102CD000AC01C501B4010E9461364B015C01209139
:102CE0007304309174044091750450917604C701C7
:102CF000B6010E9431389B01AC01C501B4010E94AC
:102D0000613620916F0430917004409171045091AC
:102D100072040E9461360E944437072E000C880B13
:102D2000990B0E947C374B015C0160910801062ED3
:102D3000000C770B880B990B0E947C379B01AC0130
:102D40006091C6047091C7048091C8049091C90431
:102D50000E9460369B01AC01C501B4010E9461363E
:102D60000E9444374B017093C4046093C304809164
:102D70009D0390919E03880D991D90939E038093CF
:102D80009D0320919C032F5F20939C03283079F4AE
:102D900023E0959587952A95E1F79093C004809359
:102DA000BF0410929E0310929D0310929C03C09149
:102DB000E104DC2FC11133C020E030E04AE754E4E5
:102DC000C701B6010E942C3887FD0AC081E08093BC
:102DD000C504CC2309F482C02DC01092D004BCCE0F
:102DE0001092C504C1E0DD23A1F320E030E04AE702
:102DF00054E4C701B6010E942C3887FD12C08091AF
:102E00009F038F5F80939F038A3008F4AFC01092B6
:102E10009F0381E08093CF041092E104DACFC0E0F9
:102E2000E2CF1092CF0410929F038091D0048823A8
:102E300009F45FC01092B0041092AF041092A30383
:102E40001092A2031092A1031092A00382EC91E0D1
:102E5000A0E0B0E080932E0190932F01A093300169
:102E6000B0933101E090AF04F090B004B70190E06E
:102E700080E00E947A374B015C0120E030EE4FEF9A
:102E800054E40E942C3861E087FF0BC020E030E062
:102E9000A901C501B4010E94CD3618160CF455C025
:102EA00060E08AE00E9493086091AF047091B004E2
:102EB000072E000C880B990B0E947C3720E030EE27
:102EC0004FEF54E40E94D23620E030E048EC52E468
:102ED0000E9431380E944B3760939804DF91CF9164
:102EE000FF90EF90DF90CF90BF90AF909F908F902A
:102EF00008958091C50481119DCF809134019091F6
:102F0000350103962091BF043091C004821B930BBE
:102F1000079758F48091A403811107C088EC90E0D2
:102F20000E941A1581E08093A403809132018730BA
:102F300029F4C701B6010E94411394CFB401990C42
:102F4000880B990B0E947C37F6CF81E2809380003A
:102F500084E1809381008FEF97E0909389008093C4
:102F60008800F0928B00E0928A009ECFCC2309F477
:102F7000B5CF5BCF0E94550928EE33E040E050E02A
:102F80000E942F363093E5042093E4041092E3046A
:102F90001092E2041092E0048091DE049091DF042C
:102FA000009721F090933501809334011092DF0453
:102FB0001092DE0480913201813011F41092CF041E
:102FC0001092DB041092A40388EC90E00C941A1584
:102FD000CF92DF92EF92FF920F931F93CF93DF93E5
:102FE0006C01EB017B01E40EF51E10E000E0CE1554
:102FF000DF0561F06991D601ED91FC910190F081BE
:10300000E02DC6010995080F191FF1CFC801DF9106
:10301000CF911F910F91FF90EF90DF90CF90089587
:10302000089590E080E008952F923F924F925F9232
:103030006F927F928F929F92AF92BF92CF92DF92C8
:10304000EF92FF920F931F93CF93DF9300D000D0A6
:103050001F92CDB7DEB78C015C0124E0A20EB11C3B
:10306000FC01E758FF4F0190F081E02DC501099563
:103070009A8389838E3F9F4F08F040C0F801E4583F
:10308000FF4FF08048016BE7860E911CF401E08051
:10309000BE970190F081E02DC5010995F801EF5A26
:1030A000FF4FE08231968F0D808337978081918129
:1030B000479629813A812F3F310511F008F0FAC077
:1030C000B3962136310540F469817A816134710506
:1030D00038F0F801E459FF4F20813181820F931FAE
:1030E0009C012F5F3F4FF9014491411121C01B8288
:1030F000F4018081FB818F0FF401808381E090E0F7
:103100000F900F900F900F900F90DF91CF911F9124
:103110000F91FF90EF90DF90CF90BF90AF909F9076
:103120008F907F906F905F904F903F902F90089579
:10313000FC01449169817A814617170609F0B5C0F0
:1031400002960097A1F2B801615B7F4F7D836C838B
:10315000FB01918380831086709660818C819D81B4
:103160000E94DD0FEC81FD818683F801E05AFF4F5C
:1031700060818C819D810E94DD0F782EEC81FD8124
:1031800087836801F7E7CF0ED11CF6019081EC81AF
:10319000FD81928781E0911180E0EC81FD81838740
:1031A000F801EF59FF4F6080662D8C819D810E9450
:1031B000DD0F382EF801EE59FF4FF0806F2D8C8116
:1031C0009D810E94DD0F482E8FEF8F0DEE24E3943A
:1031D000F12C970102C0220F331F8A95E2F73A8340
:1031E0002983F801ED59FF4F5080652D8C819D8119
:1031F0000E94DD0F5A94970101C0220F5A94EAF7FA
:10320000821B8B83EC81FD81868118160CF070CFB8
:103210006A9401C0EE0C6A94EAF782818E19380E26
:1032200032828381F9818F0F84198719EC81FD81A6
:103230008383148215829801235A3F4F3A8329834E
:1032400078013EE5E30EF11CE981FA8160818C8111
:103250009D810E94DD0F482EF70160818C819D8148
:103260000E94DD0F382EEC81FD8114816580542C85
:10327000EC81FD812680211A818581110FC0628138
:1032800043818385F6018083222D521408F4252D75
:10329000460D610F00E0C5010E94A90D521408F40B
:1032A0003CC05218639410E0E3CFF9012491820FDF
:1032B000911D16CFF801E059FF4FC080D180C80E94
:1032C000D91E760160E0C7010E940810C80ED91E01
:1032D00062E0C7010E940810F4E0EF0EF11C2981A2
:1032E0003A818217930770F3F601849190E0982F4A
:1032F00088273196E4918E2B009709F4F8CE298126
:103300003A812817390719F4C60103961ACFF60136
:103310003296E491CE0ED11CE7CF150DEC81FD81E4
:1033200014836582532CEC81FD812680211A6281F1
:1033300043818285F6018083222D521408F4252DC5
:10334000460D610F00E0C5010E94A90D521420F046
:103350005218639410E0E7CF150DEC81FD811483C2
:10336000658261E0CF010E94DD0F81117CCFEC818D
:10337000FD81858187150CF467CF8285F6018083F6
:10338000B7CEFB0101900020E9F73197AF01461B52
:10339000570BDC01ED91FC910280F381E02D099443
:1033A0008F929F92AF92BF920F931F93CF93DF9311
:1033B000CDB7DEB7A1970FB6F894DEBF0FBECDBF75
:1033C00019A2423008F44AE08E010F5D1F4F842E8F
:1033D000912CB12CA12CA50194010E942F36E62F2F
:1033E000B901CA01EA3004F5E05DD801EE938D0120
:1033F000232B242B252B79F790E080E0109729F0E0
:10340000BD018CE097E00E94C119A1960FB6F89417
:10341000DEBF0FBECDBFDF91CF911F910F91BF9047
:10342000AF909F908F900895E95CDFCFBC0190E052
:1034300080E04AE00C94D019CF92DF92EF92FF9295
:10344000CF93DF936C01990FEE08FF08F7FE19C0C8
:103450006DE28CE097E00E941418EC016627772754
:10346000CB016C197D098E099F094AE00E94D01991
:103470008C0F9D1FDF91CF91FF90EF90DF90CF9049
:1034800008954AE0C701B601DF91CF91FF90EF9018
:10349000DF90CF900C94D0194F925F926F927F92F1
:1034A0008F929F92AF92BF92CF92DF92EF92FF9254
:1034B000CF93DF936B017C01D42FAC019B010E9461
:1034C0009E386BEE71E0811126C026013701E89429
:1034D00077F82FEF3FEF4FE75FE7C301B2010E949C
:1034E0009E3881110CC02FEF3FEF4FE75FE7C3011C
:1034F000B2010E94CD366FEE71E0181664F02FEF26
:103500003FEF4FE75FE4C701B6010E942C38181661
:10351000A4F463EF71E08CE097E0DF91CF91FF902E
:10352000EF90DF90CF90BF90AF909F908F907F9063
:103530006F905F904F900C94C1192FEF3FEF4FE7C2
:103540005FECC701B6010E94CD3687FDE2CF20E0D7
:1035500030E0A901C701B6010E94CD36912C812C23
:1035600087FF0AC06DE28CE097E00E9414184C01BE
:10357000F7FAF094F7F8F094CD2FA12C60E070E00A
:1035800080E09FE3AD1640F420E030E040E251E4FB
:103590000E94D236A394F6CFA70196010E9461360D
:1035A0002B013C010E944B375B016C014AE00E94F9
:1035B000D0197C01E80CF91CDD23A9F1C601B50185
:1035C0000E947A379B01AC01C301B2010E946036B0
:1035D0004B015C016EE28CE097E00E941418E80E4B
:1035E000F91EC15000F120E030E040E251E4C50195
:1035F000B4010E9431382B013C010E944B374B0132
:10360000CB010E94161AE80EF91EB40190E080E08A
:103610000E947A379B01AC01C301B2010E9460365F
:103620004B015C01DECFC701DF91CF91FF90EF909E
:10363000DF90CF90BF90AF909F908F907F906F90D2
:103640005F904F9008950C94C11985ED8093BC0054
:103650008091ED039091EE03A091EF03B091F00300
:103660000796A11DB11D23E0B695A795979587955F
:103670002A95D1F72091BC0024FD03C010923A0492
:1036800008954091ED035091EE036091EF03709126
:10369000F003452B462B472B69F30097A105B10595
:1036A00041F025E32A95F1F700000197A109B1093E
:1036B000E1CF8091EC030C94400AFC01A081B18120
:1036C00050962C9182AD38E0839FC0011124289F31
:1036D000A001299F500D112470E060E080AD91ADF4
:1036E0000C940D3A1F93CF93DF93EC010E94DE10F0
:1036F0001BAD8AAD180FE881F9818189181768F030
:10370000EC81FD8130E020E040E060E1CE010995F0
:1037100080E0DF91CF911F910895FE01EC58FF4F9B
:103720008081882319F0CE010E945D1B612FCE019C
:103730000E94CB1081E0EDCFCF93DF93EC01FC0131
:10374000EC58FF4F8081882319F0CE010E945D1B49
:1037500060E0CE01DF91CF910C94CB10CF93DF933B
:10376000EB010E94E7358883CE01DF91CF91089568
:10377000CF93DF93EB010E94E7358883CE01DF9181
:10378000CF9108950F931F93CF93DF938C01EB019B
:103790000E94E7358883C80101960E94E735898336
:1037A000CE01DF91CF911F910F910895CF92DF92BB
:1037B000EF92FF920F931F93CF93DF93EB017B0167
:1037C00024E0E20EF11C8B016C01C61AD70AC60177
:1037D000800F911F0E94E735F80181938F01EE154C
:1037E000FF05A9F7CE01DF91CF911F910F91FF90B7
:1037F000EF90DF90CF900895FF920F931F93CF9398
:10380000DF93EC01F62E08811981C8010E94E7358B
:10381000F81621F06F2DC8010E94EF35CE01DF911F
:10382000CF911F910F91FF900895EF92FF920F9308
:103830001F93CF93DF9300D0CDB7DEB78C017B0110
:103840009A838983FB016081CE0101960E94FC1B53
:103850000F5F1F4F1A830983F7016181CE01019623
:103860000E94FC1BC7010F900F90DF91CF911F9119
:103870000F91FF90EF9008950F931F93CF93DF93D5
:1038800000D0CDB7DEB78B019A838983FB016081BD
:10389000CE0101960E94FC1BC8010F900F90DF9192
:1038A000CF911F910F9108950F931F93CF93DF93A3
:1038B00000D0CDB7DEB78B019A838983FB0160818D
:1038C000CE0101960E94FC1BC8010F900F90DF9162
:1038D000CF911F910F910895AF92BF92CF92DF9237
:1038E000EF92FF920F931F93CF93DF9300D0CDB74A
:1038F000DEB78B016B0124E0C20ED11C7B015C01A1
:10390000A61AB70AC5018E0D9F1D9A838983F701F8
:1039100061917F01CE0101960E94FC1BEC14FD0415
:1039200089F7C8010F900F90DF91CF911F910F91F0
:10393000FF90EF90DF90CF90BF90AF9008952F92BF
:103940003F924F925F926F927F928F929F92AF922F
:10395000BF92CF92DF92EF92FF920F931F93CF937C
:10396000DF93CDB7DEB7AA970FB6F894DEBF0FBED0
:10397000CDBF88E0E2E4F1E0DE01519601900D92C6
:103980008A95E1F764E070E084E090E00E94CC3832
:103990009EA38DA364E070E087E090E00E94CC38A5
:1039A00098A78FA364E070E084E090E00E94CC3898
:1039B0009AA789A764E070E084E090E00E94CC3888
:1039C0009CA38BA364E070E080E190E00E94CC387F
:1039D0009E8F8D8F30E0C32E31E0D32EADA0BEA0E0
:1039E00020E1A20EB11C09A51AA5EDA0FEA0412C54
:1039F000512C40E8642E4FE3742ED7014D925D9216
:103A00006D927D927D01F601619171916F01072E9A
:103A1000000C880B990B0E947C37D8016D937D9325
:103A20008D939D938D01EA14FB0439F7EFA1F8A55E
:103A3000FA8FE98F9F01245E3F4F3C8F2B8F8F01C0
:103A4000D8011D921D921D921D928D01FE0171964D
:103A50001F01CDA0DEA0812C912C5401D6014D90E8
:103A60005D906D907D906D01A3019201C501B4013F
:103A70000E9461364B015C01F101619171911F015E
:103A800096012450310938A32F8F072E000C880B84
:103A9000990B0E947C37A30192010E943138AF8DAF
:103AA000B8A16D937D938D939C931397CE14DF04EF
:103AB000A9F6F801349780829182A282B382EB8DBD
:103AC000FC8D0E171F0709F0BBCF2BA13CA138A31B
:103AD0002F8F690130E1C30ED11C0BA11CA189A558
:103AE0009AA540969C8F8B8FD8011D921D921D9296
:103AF0001D928D01FE0171961F01E9A4FAA4812C8B
:103B0000912C5401D7014D905D906D907D907D0179
:103B1000A3019201C501B4010E9461364B015C0111
:103B2000F101619171911F019701245031093AA36C
:103B300029A3072E000C880B990B0E947C37A30148
:103B400092010E943138A9A1BAA16D937D938D9302
:103B50009C931397EB8DFC8DEE15FF0599F6F801FC
:103B6000349780829182A282B3820C151D0509F0E0
:103B7000BBCF4D8D5E8D405C5F4F2D8D3E8D90E0B7
:103B800080E0F901E80FF91FA98DBA8DA80FB91FC0
:103B9000CD90DD90ED90FC90C082D182E282F382E4
:103BA00004968031910569F7898D9A8D04969A8FD4
:103BB000898F205F3F4F4217530709F72D8D3E8DA8
:103BC0003A8F298F1C8E1B8EB12CA12CA98DBA8DFA
:103BD000CD90DD90ED90FC90E894F7F81501BFEFE3
:103BE0002B1A3B0AE98DFA8DFAA3E9A3850141015D
:103BF000F3E08F16910409F1A9A1BAA154964D9052
:103C00005D906D907C905797E89477F8A7019601A6
:103C1000C301B2010E942C3818166CF0260137013E
:103C2000BFEF8B1A9B0AE9A1FAA17496FAA3E9A344
:103C300073016201DDCF8401F3CF0A151B0509F47E
:103C40004AC0AD8DBE8D2B8D3C8DA20FB31F000FD2
:103C5000111F000F111FF801EE0FFF1FEE0FFF1FC6
:103C6000AD8CBE8CAE0EBF1E90E080E04D915D919C
:103C70006D917D91F501C080D180E280F3809D013E
:103C800024503109F901C082D182E282F382F50128
:103C900041935193619371935F0101968430910533
:103CA00029F7EF8DF8A180819181A281B3812BA1A9
:103CB0003CA1020F131FF801408151816281738181
:103CC000EF8DF8A14083518362837383F801808371
:103CD0009183A283B3836F8C78A0F4E06F0E711C84
:103CE00080EFA82EBB24BA942B8D3C8DA21AB30A68
:103CF000098D1A8D23014101780134E1E30EF11C95
:103D00006101F501EE0DFF1D8B8D9C8DE80FF91FF4
:103D1000D80150962D913D914D915C9153976081C2
:103D20007181828193810E943138E98DFA8D2081E1
:103D30003181428153810E94D2369B01AC01D7016F
:103D40006D917D918D919C910E946036F7016193F8
:103D50007193819391937F01FFEFCF1ADF0A24E0E3
:103D6000C216D10471F6D201CD90DD90ED90FD9098
:103D70002D01FD013497FAA3E9A3AF8DB8A12D91D0
:103D80003D914D915C91F801608971898289938997
:103D90000E943138A98DBA8D2D913D914D915C9144
:103DA0000E94D2369B01AC01C701B6010E94603669
:103DB000E9A1FAA16083718382839383FFEF8F1A55
:103DC0009F0A005F1F4F20E1A21AB10834E083165A
:103DD000910409F091CFA98DBA8D5496BA8FA98F0D
:103DE000EB8DFC8D7096FC8FEB8F510178A26F8E5E
:103DF000F3E02F16310409F0E9CE8BA09CA080E1FE
:103E0000880E911C8E01035F1F4FED8CFE8C9CE38E
:103E1000E90EF11CF401B291A291929182914F01AD
:103E2000F80180839183A283B3835101D12CC12CEB
:103E3000D8014D905D906D907C90BFEFAB1ABB0A9E
:103E4000E4E0CE0ED11CF4E0AF16B104E9F0F801C5
:103E5000EC0DFD1D2081318142815381F701EC0D74
:103E6000FD1D60817181828193810E9431389B01A7
:103E7000AC01C301B2010E946036D8016D937D93FD
:103E80008D939C931397D4CFF70120813181428188
:103E90005381C301B2010E94D236D8016D937D9344
:103EA0008D939C931397B1E02B1A3108045011099C
:103EB000E4E1EE1AF108FFEF2F163F0609F0AACF52
:103EC0008DA19EA10E9484398FA198A50E9484395A
:103ED00089A59AA50E9484398BA19CA10E9484394E
:103EE0008D8D9E8D0E94843989819A81AB81BC81A0
:103EF00080936F0490937004A0937104B093720444
:103F00008D819E81AF81B8858093730490937404F2
:103F1000A0937504B093760489859A85AB85BC859A
:103F20008093770490937804A0937904B0937A04F3
:103F30008D859E85AF85B88980937B0490937C04A2
:103F4000A0937D04B0937E04AA960FB6F894DEBFCA
:103F50000FBECDBFDF91CF911F910F91FF90EF90DA
:103F6000DF90CF90BF90AF909F908F907F906F9099
:103F70005F904F903F902F9008953F924F925F92A5
:103F80006F927F928F929F92AF92BF92CF92DF9269
:103F9000EF92FF920F931F93CF93DF93633081F4DF
:103FA0008901C82F0E94BA17C33028F4C130D0F05D
:103FB000C2E0D0E043C3C330A9F0C43009F43CC32D
:103FC000DF91CF911F910F91FF90EF90DF90CF90F5
:103FD000BF90AF909F908F907F906F905F904F9029
:103FE0003F90089580913201083E134008F000C3CD
:103FF000813079F49091D0049111E2CF9091C50471
:104000009111DECF8093B7041092E0041092A403C4
:10401000D7CF823009F055C080919404811104C03B
:1040200084E080933201CCCF8B3F11F0813021F4BA
:1040300083E080933201C4CF8F3F11F0853021F4AB
:1040400085E080933201BCCF8E3F11F0843021F4A3
:1040500086E080933201B4CF8C3F11F0823021F49E
:1040600088E080933201ACCF8D3F19F0833009F0A6
:10407000A7CF80E090E0A0E4B1E480931A01909390
:104080001B01A0931C01B0931D018DEC9CECACE0D6
:10409000B0E48093160190931701A0931801B09398
:1040A00019018AE999E9A9E9BFE380931201909384
:1040B0001301A0931401B093150187E0809332019E
:1040C0007FCF833009F05FC080919204813099F0F6
:1040D00034F4811175CF82E08093320171CF823048
:1040E00039F1833009F06CCF90919104911139C06E
:1040F0008093910465CF90919104911103C08093B6
:1041000091045ECF913009F05BCF809190048111D2
:1041100004C081E08093900453CF6AE171E081E0B4
:1041200090E00E946C1C109290041092910448CF71
:1041300090919104911103C08093910441CF9230EA
:1041400009F03ECF80919004882319F366E171E075
:1041500085E090E00E946C1C1092900410929104F3
:104160002FCF933009F02CCF80919004882389F2CF
:1041700062E171E089E090E00E946C1C1092900472
:10418000109291041DCF843069F580918F048130A5
:1041900051F0823009F09DCF90918E04911116C09C
:1041A00080938E040DCF90918E04911103C0809363
:1041B0008E0406CF913009F003CF66E371E08DE005
:1041C00090E00E94151C10928E04FACE923009F0F5
:1041D000F7CE63E371E081E190E00E943C1C109215
:1041E0008E04EECE853009F064C080918D0481305C
:1041F00071F10CF46ECF8230E9F1833009F0E0CE3A
:1042000080918A048111DCCE80918C0491E0892711
:1042100080938C046CE874E082E290E00E94541C6D
:104220006CE874E082E290E0DF91CF911F910F91F2
:10423000FF90EF90DF90CF90BF90AF909F908F90C6
:104240007F906F905F904F903F900C94B81B90912F
:104250008A04911103C080938A04B2CE913009F090
:10426000AFCE61E171E082E190E00E943C1C1092CF
:104270008A04A6CE80918A04811104C082E08093D2
:104280008A049ECE823009F09BCE6BE874E081E216
:1042900090E00E94541C80918B04882339F08FEAAF
:1042A00091E00E94130710928A048ACE85EE91E075
:1042B000F8CF863009F045C080918904813071F0D3
:1042C0000CF407CF8230E9F0833009F079CE909179
:1042D000840491112AC08093840472CE9091840446
:1042E000911103C0809384046BCE913009F068CEA5
:1042F00069E071E083E190E00E946C1C10928404FC
:104300005FCE80918404811104C082E08093840494
:1043100057CE823009F054CE65E874E087E190E032
:104320000E946C1C109284044BCE933009F048CE4E
:104330006DE071E08CE190E00E946C1C10928404AE
:104340003FCE883009F0ADC080918304813071F098
:104350000CF4BFCE8230F1F0833009F031CE909171
:104360008004911138C0809380042ACE809180040B
:10437000811104C081E08093800422CE813009F055
:104380001FCE68E071E080E290E00E943C1C109239
:10439000800416CE80918004811112CE8091810418
:1043A00091E089278093810461E874E08BE190E0DB
:1043B000DF91CF911F910F91FF90EF90DF90CF9001
:1043C000BF90AF909F908F907F906F905F904F9035
:1043D0003F900C94541C933009F0F2CD80918204EC
:1043E000882309F45BC0C12CD12C760110E000E0D9
:1043F000D0E0C0E032E3432E40E1542E5BE4352EA2
:10440000A895460157012AE0B594A79497948794FC
:104410002A95D1F73401C401801B910B0597E0F078
:1044200080E197E00E949C1B40928707509288078A
:10443000C3010E94161A309287075092880767EFCF
:1044400071E08CE097E00E94231B80E197E00E94DE
:10445000721B8111E9CF840160E0CE010E94EF352B
:10446000219684E6C80ED11CE11CF11CC11490E910
:10447000D90691E0E906F10419F6A89584B7877F7B
:1044800084BF8091600088618093600080E18093A8
:1044900060008091600088608093600010928004CA
:1044A0008FCD873009F08CCDE0917F04E73008F0A4
:1044B00087CD0E2E000CFF0BE05AFD4D0C94B73843
:1044C00067228F22A722C022D922F222672282E00D
:1044D0008093320110927F046AE171E081E090E004
:1044E0000E94D61B66E171E085E090E00E94D61B39
:1044F00062E171E089E090E0DF91CF911F910F912F
:10450000FF90EF90DF90CF90BF90AF909F908F90F3
:104510007F906F905F904F903F900C94D61B80914E
:104520006A04811106C081E080936A048093E104EB
:1045300047CD813009F044CD60E071E083E290E046
:104540000E94151C10926A041092E10439CD8091EA
:104550006A04811107C082E080936A0481E080933D
:10456000E1042ECD823009F02BCD62E071E087E2CC
:1045700090E00E94151C10926A041092E10420CD74
:1045800080916A04811107C083E080936A0481E00E
:104590008093E10415CD833009F012CD64E071E021
:1045A0008BE290E00E94151C10926A041092E104C4
:1045B00007CD80916A04811107C084E080936A046A
:1045C00081E08093E104FCCC843009F0F9CC66E012
:1045D00071E08FE290E00E94151C10926A04109224
:1045E000E104EECC0E949F1C86E080937F04E8CC1F
:1045F0008130F1F482E08093320188EC90E00E94F7
:104600001A1569EF71E086EE94E0DF91CF911F916A
:104610000F91FF90EF90DF90CF90BF90AF909F9061
:104620008F907F906F905F904F903F900C94231BE2
:10463000873039F381E0DFCFC1E0D0E082E390E062
:104640000E941A15E0913201E150E83008F0B8CC30
:10465000F0E0E35DFC4D0C94B738352372239423CE
:104660000B245A2499248B25532580913401909151
:104670003501229769F50A969093350180933401AC
:104680000E94141340913401509135018091BB0474
:104690009091BC042091B9043091BA048417950715
:1046A000C8F43093350120933401DF91CF911F91ED
:1046B0000F91FF90EF90DF90CF90BF90AF909F90C1
:1046C0008F907F906F905F904F903F900C94BA17AF
:1046D0000A97D2CF4217530740F790933501809342
:1046E0003401E3CF80919704219779F4811168CC4C
:1046F00080919304811164CC81E080939704809130
:1047000094048F5F809394045BCC811159CC809189
:104710009304811155CC81E080939304809194049B
:104720008150809394044CCCC12CD12C90E8E92E7C
:104730009FE3F92E219731F4C12CD12C80E8E82E8B
:104740008FEBF82E8091900420E030E040E85FE3AA
:10475000882321F02DEC3CEC4CEC5DE3809191043E
:104760008130D1F154F4882329F18091920484306E
:104770000CF44BC01092920423CC823011F08330A1
:10478000A1F7C701B6010E9431389B01AC016091CD
:1047900016017091170180911801909119010E94E2
:1047A00061366093160170931701809318019093FE
:1047B0001901DBCF60919204062E000C770B880B59
:1047C000990B0E947C37A70196010E9461360E94D6
:1047D000443760939204C9CFC701B6010E943138B3
:1047E0009B01AC0160911A0170911B0180911C0129
:1047F00090911D010E94613660931A0170931B0114
:1048000080931C0190931D01B0CF87FFD9CB83E02B
:1048100080939204D5CB80918E04811110C0809139
:104820008F04229751F48F5F80938F0480918F04BF
:1048300083300CF110928F04C3CB8150F5CF8130BF
:1048400071F48091360190913701229731F44E96A0
:104850009093370180933601E9CF4E97F9CF82309C
:1048600029F780913301229721F48F5F80933301E0
:10487000DDCF8150FBCF87FF04C082E080938F049F
:104880009FCB8091360190913701883E23E09207BB
:1048900038F08EE190E0909337018093360190CB11
:1048A0004E9708F08DCB87EE93E09093370180937D
:1048B000360186CB80918A04811116C080918D04C7
:1048C000229751F48F5F80938D0480918D04843002
:1048D0002CF010928D0474CB8150F5CF87FF70CBF4
:1048E00083E080938D046CCB8130C9F480911101F9
:1048F000229769F48B5F80931101809111019EEFE3
:10490000980F933030F485E08093110159CB855096
:10491000F2CF811155CB8FEF8093110151CB8230B3
:1049200009F04ECB80918B0491E0892780938B0412
:1049300047CB80918404811116C08091890422970D
:1049400051F48F5F809389048091890484302CF026
:104950001092890435CB8150F5CF87FF31CB83E0AE
:10496000809389042DCB813021F5609109017091EC
:104970000A0180910B0190910C012AE037ED43E28E
:104980005CE3229759F40E946136609309017093A9
:104990000A0180930B0190930C0112CB0E946036A8
:1049A0006093090170930A0180930B0190930C01AD
:1049B00007CB823021F56091850470918604809147
:1049C0008704909188042DEC3CEC4CEC5DE322973D
:1049D00059F40E9461366093850470938604809335
:1049E000870490938804ECCA0E9460366093850423
:1049F000709386048093870490938804E1CA83307F
:104A000009F0DECA60910D0170910E0180910F01D5
:104A1000909110012DEC3CEC4CEC5DE3229749F5B4
:104A20000E94613660930D0170930E0180930F0117
:104A300090931001C0900D01D0900E01E0900F01F5
:104A4000F090100120E030E040EF51E4C701B601E2
:104A50000E942C38181684F48DEC9CECACE4B0E485
:104A600080930D0190930E01A0930F01B09310015C
:104A7000A7CA0E946036D6CF2DEC3CEC4CE450E443
:104A8000C701B6010E94CD3687FF9ACA80E090E048
:104A9000A0EFB1E480930D0190930E01A0930F015C
:104AA000B09310018DCA80918004811116C080914D
:104AB0008304229751F48F5F809383048091830451
:104AC00084302CF0109283047BCA8150F5CF87FF8D
:104AD00077CA83E08093830473CA813091F4809114
:104AE0000801229761F48F5F80930801809108018B
:104AF0008D59873C08F464CA1092080161CA81503C
:104B0000F3CF833009F05CCA8091820491E0892759
:104B10008093820455CA80916A04811116C08091E5
:104B20007F04229751F48F5F80937F0480917F04EC
:104B300087302CF010927F0443CA8150F5CF87FF55
:104B40003FCA86E080937F043BCA813091F4809114
:104B5000000190910101229731F401969093010197
:104B6000809300012DCA0197909301018093000169
:104B700027CA823091F4809102019091030122971B
:104B800031F40196909303018093020119CA0197B1
:104B9000909303018093020113CA833091F48091B2
:104BA000040190910501229731F40196909305013B
:104BB0008093040105CA0197909305018093040135
:104BC000FFC9843009F0FCC980910601909107016A
:104BD000229731F401969093070180930601F0C962
:104BE00001979093070180930601EAC91F920F92E3
:104BF0000FB60F9211242F933F934F935F936F93B0
:104C00007F938F939F93AF93BF93EF93FF9386EE22
:104C100094E00E947107FF91EF91BF91AF919F9136
:104C20008F917F916F915F914F913F912F910F9055
:104C30000FBE0F901F9018951F920F920FB60F92F4
:104C400011242F938F939F93EF93FF93E091F6049A
:104C5000F091F7048081E091FC04F091FD0482FD65
:104C60001BC090818091FF048F5F8F73209100059E
:104C7000821741F0E091FF04F0E0EA51FB4F958F7D
:104C80008093FF04FF91EF919F918F912F910F904F
:104C90000FBE0F901F9018958081F4CF1F920F9236
:104CA0000FB60F9211242F933F938F939F93AF933F
:104CB000BF938091610490916204A0916304B091CC
:104CC00064043091600423E0230F2D3758F50196DA
:104CD000A11DB11D20936004809361049093620430
:104CE000A0936304B093640480916504909166047A
:104CF000A0916704B09168040196A11DB11D809335
:104D0000650490936604A0936704B0936804BF9110
:104D1000AF919F918F913F912F910F900FBE0F9068
:104D20001F90189526E8230F0296A11DB11DD2CF22
:104D30001F920F920FB60F9211242F933F934F9310
:104D40005F936F937F938F939F93AF93BF93EF93F3
:104D5000FF938091B900887F803609F44AC0F0F54E
:104D6000883209F4A7C018F5803109F49BC0B8F463
:104D7000882309F4F9C0883009F494C0FF91EF91B9
:104D8000BF91AF919F918F917F916F915F914F9163
:104D90003F912F910F900FBE0F901F901895883163
:104DA00009F488C0803251F78093390414C08034EC
:104DB00009F49DC040F48033B9F38833F9F6809349
:104DC000390485ECB0C0803509F485C0883509F414
:104DD00096C0883499F60E94251BD0CF883909F4F3
:104DE0008CC038F5883729F050F4883611F08037B8
:104DF00029F683E080933A041092380457C088382B
:104E000009F47BC0803919F0803809F0B7CF809160
:104E10003804803208F071C0E091380481E08E0FD0
:104E2000809338048091BB00F0E0E85EFB4F808304
:104E30003DC0803B39F0E0F4803A09F479C0883A0B
:104E400009F09CCF84E080933A04109215041092EC
:104E50001404E0911204F091130409958091140454
:104E600081110FC081E0809314041092F20309C0F5
:104E7000803C09F4A6CF883C09F4A3CF883B09F015
:104E80007DCFE091150481E08E0F80931504F0E052
:104E9000EE50FC4F80818093BB009091150480916F
:104EA000140429C080915F048093BB0085EC80933B
:104EB000BC0064CF90915E0480915D04981758F512
:104EC000E0915E0481E08E0F80935E04F0E0E35C8D
:104ED000FB4F8081E9CFE0915E0481E08E0F8093EB
:104EE0005E048091BB00F0E0E35CFB4F8083909117
:104EF0005E0480915D049817C8F285E8D8CFE091F0
:104F00005E0481E08E0F80935E048091BB00F0E030
:104F1000E35CFB4F808380913C0481115CCF81E096
:104F200080933B0484EA8093BC0010923A0426CF1D
:104F300085EC8093BC0010923A0480913804803252
:104F400030F4E0913804F0E0E85EFB4F10826091AD
:104F5000380470E0E0911604F091170488E194E0C1
:104F60000995109238040ACF1092390434CF18955D
:104F7000CF93DF93EC01862F1B8291E09C831D86EB
:104F80002DEB3FE1388F2F8B688319829E874AE093
:104F900050E060E070E04F87588B698B7A8B44E675
:104FA00050E060E070E04B8B5C8B6D8B7E8B62E041
:104FB0000E94C1088981813041F488810E946A0879
:104FC00021E0892B31F420E004C021E08E85882384
:104FD000D1F32A83DF91CF910895CF931092E90402
:104FE0001092E80488EE93E0A0E0B0E08093EA0439
:104FF0009093EB04A093EC04B093ED0429EB31E023
:105000003093E7042093E60425EC30E03093F3047A
:105010002093F20424EC30E03093F5042093F40460
:1050200020EC30E03093F7042093F60421EC30E0DC
:105030003093F9042093F80422EC30E03093FB0421
:105040002093FA0426EC30E03093FD042093FC0416
:105050001092FF04109200051092010510920205B3
:105060001092860510928505809387059093880598
:10507000A0938905B0938A058BEC91E09093840509
:105080008093830510920F0710920E0784EA96E032
:105090009093860780938507109287071092880760
:1050A000109228078DED91E090930D0780930C07E7
:1050B00010921107109210071092250710921C07EA
:1050C00010921D0710921E0710921F078FEF8093FA
:1050D000260780932A07EEE2F7E084E497E0CFEF1B
:1050E000C1938E179F07E1F787E69BE09093150722
:1050F0008093140786E59CE090931707809316072A
:105100008AE391E190931907809318078BE792E166
:1051100090931B0780931A0730E020E040E069E09D
:1051200080E197E00E94670B109258071092570792
:105130008EEA96E090934507809344078FE895E0C8
:10514000909349078093480782E080934A07109222
:105150004B07109264071092820781E080938307C7
:105160008093840785EE91E09093470780934607EC
:1051700080E197E00E94A50DE0914607F091470776
:105180000280F381E02D80E197E0099581E197E0CD
:1051900090935A0780935907C0933907C0933A07F1
:1051A000C0933B0764E083EF96E00E94B82760E07D
:1051B0008AED96E00E94B82761E081EC96E00E94BB
:1051C000B82763E088EA96E00E94B82762E08FE89B
:1051D00096E0CF910C94B827CF93DF9300D0CDB752
:1051E000DEB7789484B5826084BD84B5816084BD67
:1051F00085B5826085BD85B5816085BD80916E0075
:10520000816080936E0010928100809181008260A5
:1052100080938100809181008160809381008091E2
:1052200080008160809380008091B10084608093D1
:10523000B1008091B00081608093B00080917A00CD
:10524000846080937A0080917A00826080937A00F3
:1052500080917A00816080937A0080917A008068E2
:1052600080937A001092C10069E674E090E080E0DB
:105270000E94AE1B80916904823010F01092690484
:105280008091690481117AC06AE171E081E090E067
:105290000E946C1C66E171E085E090E00E946C1C4D
:1052A00062E171E089E090E00E946C1C66E371E0CD
:1052B0008DE090E00E94151C63E371E081E190E0D5
:1052C0000E943C1C61E171E082E190E00E943C1C84
:1052D00069E071E083E190E00E946C1C65E874E095
:1052E00087E190E00E946C1C61E874E08BE190E043
:1052F0000E94541C6DE071E08CE190E00E946C1CF7
:1053000068E071E080E290E00E943C1C6BE874E091
:1053100081E290E00E94541C6CE874E082E290E02C
:105320000E94541C60E071E083E290E00E94151C32
:1053300062E071E087E290E00E94151C64E071E099
:105340008BE290E00E94151C66E071E08FE290E035
:105350000E94151C64E371E083E390E00E94151C39
:1053600081E090E09A838983BE016F5F7F4F90E078
:1053700080E00E94151C81E080936904809169049B
:10538000813009F06CC06AE171E081E090E00E9438
:10539000D61B66E171E085E090E00E94D61B62E1D9
:1053A00071E089E090E00E94D61B66E371E08DE039
:1053B00090E00E94C21B63E371E081E190E00E94F3
:1053C000AE1B61E171E082E190E00E94AE1B69E0FA
:1053D00071E083E190E00E94D61B65E874E087E10C
:1053E00090E00E94D61B61E874E08BE190E00E949F
:1053F000B81B6DE071E08CE190E00E94D61B68E084
:1054000071E080E290E00E94AE1B6BE874E081E204
:1054100090E00E94B81B6CE874E082E290E00E9489
:10542000B81B60E071E083E290E00E94C21B62E082
:1054300071E087E290E00E94C21B64E071E08BE2C1
:1054400090E00E94C21B66E071E08FE290E00E9453
:10545000C21B64E371E083E390E00E94C21B62E040
:1054600084E00E94C10862E080E00E94C10862E01E
:1054700081E00E94C10860E080E10E94C10862E012
:105480008CE00E94C10860E084E10E94C10860E0F5
:1054900081E10E94C10861E088E00E94C10861E0EA
:1054A0008AE00E94C10860E08AE00E94930860E000
:1054B00088E00E949308E0911407F091150730E00E
:1054C00020E040E06AE080E197E0099580E197E024
:1054D0000E949C1B80E197E00E94721B8111FACF11
:1054E00060E080E197E00E94CB10E0911407F0911A
:1054F000150730E020E040E06BE080E197E009959F
:1055000080EC9CE09093860780938507E0911407D8
:10551000F091150730E020E0409111016EE080E14C
:1055200097E0099580918B04882309F478C28FEA6B
:1055300091E00E94130780E197E00E949C1B02E328
:1055400015E18AEB96E00E941410009387071093F0
:1055500088076EE072E08CE097E00E94231B80E1F8
:1055600097E00E94721B8111ECCF80917A008660D7
:1055700080937A0080917A00886080937A0061E05D
:1055800088E00E94C10861E088E00E94930862E31D
:1055900070E080E090E00E94220960E088E00E94D4
:1055A000930868EC70E080E090E00E94220961E0DE
:1055B00088E00E94930862E370E080E090E00E943F
:1055C000220960E088E00E9493081AE00E942B15EF
:1055D0001150E1F70E94141380918104882309F48B
:1055E00021C281E08093E1040E949F1CF8EE8F2E7F
:1055F000F3E09F2EA12CB12CEAE22E2EE1E03E2E0C
:10560000A89581EC96E00E94610983EF96E00E94E4
:1056100061098AED96E00E9461098FE896E00E9498
:10562000610988EA96E00E9461098091CA048111AB
:1056300007C080E197E00E949C1B81E08093CA0430
:105640008091DB0481110C94AF3480913201813060
:1056500009F0FFC28091CF0410912B019091C504F5
:1056600091110C942B358111E9C180E594E00E94E1
:1056700014101E5E2091C3043091C40423363105FA
:105680000CF4D3C110928707109388078091BD0452
:105690009091BE044091E104442369F04091C1041B
:1056A0005091C2044C5F5F4F4930510520F4209166
:1056B000BF043091C004281B390B121613060CF0DE
:1056C000B8C101969093BE048093BD048091BD043F
:1056D0009091BE040E941C1A82EC90E00E9414106B
:1056E000C090B904D090BA040D2C000CEE08FF084D
:1056F000209134013091350150E040E02C193D09F2
:105700004E095F09A6E3B0E00E941C362091BB045D
:105710003091BC04032E000C440B550B2C193D0991
:105720004E095F090E94FD35DA01C9010396A11DEA
:10573000B11D8093B80460912B01645E2FE042E0BC
:105740000E940B0F60912B01625E22E04DE380E02E
:105750000E948C0E409134015091350190912B01A3
:105760002091B804935E473381E0580708F092C156
:105770002B5F2093870790938807CA010E94161A0F
:105780008AEB96E00E94141080912B01882381F00F
:105790009FEF980F90932B0192E3909387078C5083
:1057A000809388076EE072E08CE097E00E94231BF4
:1057B0008091B704882379F18091B604873008F08E
:1057C0006BC18F5F8093B6049091B5049F5F9093F7
:1057D000B5048730B1F410922A018091E104882346
:1057E00051F08091E004811106C064E371E083E32D
:1057F00090E00E94151C8091E10491E0892780933C
:10580000E1040E9455096093B1047093B20480933F
:10581000B3049093B40410912B0163E0F62EF10EC3
:105820000EE0010F22E043E06F2D8BE40E94560E44
:1058300021E043E06F2D86E50E94560E24E043E010
:10584000602F8BE40E94560E28E043E0602F86E52F
:105850000E94560E74E0F72EF10E00E02AE0412F70
:105860006CE480E197E00E94A90D41E1410F2AE03C
:105870006CE480E197E00E94A90D4AE06F2D88E476
:105880000E94A80E4AE06F2D89E50E94A80E809123
:105890002B01825F9BE49093870780938807809118
:1058A000E10462E372E0882341F08091E00468E261
:1058B00073E0882311F06EE272E08CE097E00E94C2
:1058C000231B1091B604173019F482E00E942907B7
:1058D0008091B50421E0280F220F41E0410F440FD1
:1058E00060912B01681B685F00912A0180E5811B94
:1058F0000E94420F8091B604873019F481E00E9423
:1059000029078091E104882309F42DC1E090AF04B8
:10591000F090B0040E9455090091AB041091AC04C2
:105920002091AD043091AE042B013C01401A510A84
:10593000620A730A9701A4EDBEEF0E94BD382FEFF3
:1059400037E040E050E00E94FD352E533E4F4F4F70
:105950005F4F44275527241535054605570508F0A0
:1059600045C00DE914E029E030E0D7010E94C538B8
:105970002FEF37E040E050E00E94FD3569017A01E9
:10598000B3E0CB0ED11CE11CF11CDD24EE24FF247E
:1059900026013701E1E04E1A51086108710881E0E3
:1059A00090E0A0E0B0E0F2E0CF16D104E104F10411
:1059B0005CF00E948F35A30192010E94FD35DC014D
:1059C000CB010196A11DB11DF80181938F014BEA16
:1059D00054E04E175F0719F70E9455096093AB0416
:1059E0007093AC048093AD049093AE040DE914E081
:1059F0005AE4D52ED8018D918D0190912B0140E272
:105A0000F42EF90EEF2CE81AEF1410F40C943C3538
:105A1000811160C0712CCF2CFD2CED2C61C085EE66
:105A200091E087CD1092E104DFCD8AE08093870773
:105A30002BCE232B09F44ACE019744CE82EC90E082
:105A40000E9414108CE080938707185F10938807DA
:105A500064E172E08CE097E00E94231B80912B01AF
:105A60008F5E97E190938707809388076CE172E0DF
:105A70008CE097E00E94231B82E00E94290722E12C
:105A80004DE360912B0180E00E948C0E81E00E942A
:105A9000290722CE25516DCE0E9455090091B104EF
:105AA0001091B2042091B3043091B404601B710BC7
:105AB000820B930B6D3271408105910508F4ABCEDA
:105AC0001092B6041092B50481E080932A011092DE
:105AD000B704A1CE77247394CD2C8E2DEF2CF82E05
